{
  "_format": "hh-sol-artifact-1",
  "contractName": "NFTLending",
  "sourceName": "contracts/NFTLending.sol",
  "abi": [
    {
      "inputs": [
        {
          "internalType": "address",
          "name": "priceFeedAddress",
          "type": "address"
        }
      ],
      "stateMutability": "nonpayable",
      "type": "constructor"
    },
    {
      "inputs": [
        {
          "internalType": "address",
          "name": "nft",
          "type": "address"
        },
        {
          "internalType": "uint256",
          "name": "tokenId",
          "type": "uint256"
        }
      ],
      "name": "DepositFailed",
      "type": "error"
    },
    {
      "inputs": [
        {
          "internalType": "address",
          "name": "account",
          "type": "address"
        }
      ],
      "name": "InsufficientCollateral",
      "type": "error"
    },
    {
      "inputs": [
        {
          "internalType": "address",
          "name": "account",
          "type": "address"
        },
        {
          "internalType": "uint256",
          "name": "amount",
          "type": "uint256"
        }
      ],
      "name": "InsufficientFunds",
      "type": "error"
    },
    {
      "inputs": [
        {
          "internalType": "uint256",
          "name": "amount",
          "type": "uint256"
        }
      ],
      "name": "MustBeGreaterThanZero",
      "type": "error"
    },
    {
      "inputs": [
        {
          "internalType": "address",
          "name": "nft",
          "type": "address"
        }
      ],
      "name": "NFTNowAllowed",
      "type": "error"
    },
    {
      "inputs": [
        {
          "internalType": "address",
          "name": "account",
          "type": "address"
        },
        {
          "internalType": "uint256",
          "name": "amount",
          "type": "uint256"
        }
      ],
      "name": "NegativeTreasury",
      "type": "error"
    },
    {
      "inputs": [
        {
          "internalType": "address",
          "name": "account",
          "type": "address"
        },
        {
          "internalType": "address",
          "name": "nft",
          "type": "address"
        }
      ],
      "name": "NoDeposit",
      "type": "error"
    },
    {
      "inputs": [
        {
          "internalType": "uint256",
          "name": "tokenId",
          "type": "uint256"
        }
      ],
      "name": "TokenNotFound",
      "type": "error"
    },
    {
      "inputs": [
        {
          "internalType": "address",
          "name": "nft",
          "type": "address"
        },
        {
          "internalType": "uint256",
          "name": "tokenId",
          "type": "uint256"
        }
      ],
      "name": "WithdrawFailed",
      "type": "error"
    },
    {
      "anonymous": false,
      "inputs": [
        {
          "indexed": true,
          "internalType": "address",
          "name": "account",
          "type": "address"
        },
        {
          "indexed": true,
          "internalType": "uint256",
          "name": "amount",
          "type": "uint256"
        }
      ],
      "name": "BorrowEth",
      "type": "event"
    },
    {
      "anonymous": false,
      "inputs": [
        {
          "indexed": true,
          "internalType": "uint256",
          "name": "tokenId",
          "type": "uint256"
        },
        {
          "indexed": true,
          "internalType": "uint256",
          "name": "lengths",
          "type": "uint256"
        }
      ],
      "name": "DeleteDeposit",
      "type": "event"
    },
    {
      "anonymous": false,
      "inputs": [
        {
          "indexed": true,
          "internalType": "address",
          "name": "account",
          "type": "address"
        },
        {
          "indexed": true,
          "internalType": "uint256",
          "name": "tokenId",
          "type": "uint256"
        }
      ],
      "name": "Deposit",
      "type": "event"
    },
    {
      "anonymous": false,
      "inputs": [
        {
          "indexed": true,
          "internalType": "address",
          "name": "account",
          "type": "address"
        },
        {
          "indexed": true,
          "internalType": "uint256",
          "name": "amount",
          "type": "uint256"
        }
      ],
      "name": "EthDeposited",
      "type": "event"
    },
    {
      "anonymous": false,
      "inputs": [
        {
          "indexed": true,
          "internalType": "address",
          "name": "account",
          "type": "address"
        },
        {
          "indexed": true,
          "internalType": "uint256",
          "name": "userScore",
          "type": "uint256"
        }
      ],
      "name": "HealthScore",
      "type": "event"
    },
    {
      "anonymous": false,
      "inputs": [
        {
          "indexed": true,
          "internalType": "address",
          "name": "nft",
          "type": "address"
        },
        {
          "indexed": true,
          "internalType": "uint256",
          "name": "amount",
          "type": "uint256"
        }
      ],
      "name": "NewFloor",
      "type": "event"
    },
    {
      "anonymous": false,
      "inputs": [
        {
          "indexed": true,
          "internalType": "address",
          "name": "previousOwner",
          "type": "address"
        },
        {
          "indexed": true,
          "internalType": "address",
          "name": "newOwner",
          "type": "address"
        }
      ],
      "name": "OwnershipTransferred",
      "type": "event"
    },
    {
      "anonymous": false,
      "inputs": [
        {
          "indexed": true,
          "internalType": "address",
          "name": "account",
          "type": "address"
        }
      ],
      "name": "ProjectApproved",
      "type": "event"
    },
    {
      "anonymous": false,
      "inputs": [
        {
          "indexed": true,
          "internalType": "address",
          "name": "account",
          "type": "address"
        },
        {
          "indexed": true,
          "internalType": "uint256",
          "name": "tokenId",
          "type": "uint256"
        }
      ],
      "name": "Withdraw",
      "type": "event"
    },
    {
      "anonymous": false,
      "inputs": [
        {
          "indexed": true,
          "internalType": "address",
          "name": "account",
          "type": "address"
        },
        {
          "indexed": true,
          "internalType": "uint256",
          "name": "amount",
          "type": "uint256"
        }
      ],
      "name": "WithdrawEth",
      "type": "event"
    },
    {
      "inputs": [
        {
          "internalType": "address",
          "name": "user",
          "type": "address"
        }
      ],
      "name": "accountBorrowed",
      "outputs": [
        {
          "internalType": "uint256",
          "name": "",
          "type": "uint256"
        }
      ],
      "stateMutability": "view",
      "type": "function"
    },
    {
      "inputs": [
        {
          "internalType": "address",
          "name": "user",
          "type": "address"
        }
      ],
      "name": "accountCollateral",
      "outputs": [
        {
          "internalType": "uint256",
          "name": "",
          "type": "uint256"
        }
      ],
      "stateMutability": "view",
      "type": "function"
    },
    {
      "inputs": [
        {
          "internalType": "address",
          "name": "nft",
          "type": "address"
        }
      ],
      "name": "approveNFT",
      "outputs": [],
      "stateMutability": "nonpayable",
      "type": "function"
    },
    {
      "inputs": [
        {
          "internalType": "uint256",
          "name": "amount",
          "type": "uint256"
        }
      ],
      "name": "borrowEth",
      "outputs": [],
      "stateMutability": "payable",
      "type": "function"
    },
    {
      "inputs": [
        {
          "internalType": "address",
          "name": "user",
          "type": "address"
        }
      ],
      "name": "borrowMaxUSD",
      "outputs": [
        {
          "internalType": "uint256",
          "name": "",
          "type": "uint256"
        }
      ],
      "stateMutability": "view",
      "type": "function"
    },
    {
      "inputs": [],
      "name": "depositETH",
      "outputs": [],
      "stateMutability": "payable",
      "type": "function"
    },
    {
      "inputs": [
        {
          "internalType": "address",
          "name": "nft",
          "type": "address"
        },
        {
          "internalType": "uint256",
          "name": "tokenId",
          "type": "uint256"
        }
      ],
      "name": "depositNFT",
      "outputs": [],
      "stateMutability": "nonpayable",
      "type": "function"
    },
    {
      "inputs": [
        {
          "internalType": "uint256",
          "name": "amount",
          "type": "uint256"
        }
      ],
      "name": "ethToUSD",
      "outputs": [
        {
          "internalType": "uint256",
          "name": "",
          "type": "uint256"
        }
      ],
      "stateMutability": "view",
      "type": "function"
    },
    {
      "inputs": [
        {
          "internalType": "address",
          "name": "nft",
          "type": "address"
        }
      ],
      "name": "getNFTFloorEthValue",
      "outputs": [
        {
          "internalType": "uint256",
          "name": "",
          "type": "uint256"
        }
      ],
      "stateMutability": "view",
      "type": "function"
    },
    {
      "inputs": [
        {
          "internalType": "address",
          "name": "nft",
          "type": "address"
        }
      ],
      "name": "getNFTFloorUSDValue",
      "outputs": [
        {
          "internalType": "uint256",
          "name": "",
          "type": "uint256"
        }
      ],
      "stateMutability": "view",
      "type": "function"
    },
    {
      "inputs": [
        {
          "internalType": "address",
          "name": "account",
          "type": "address"
        }
      ],
      "name": "healthScore",
      "outputs": [
        {
          "internalType": "uint256",
          "name": "",
          "type": "uint256"
        }
      ],
      "stateMutability": "view",
      "type": "function"
    },
    {
      "inputs": [],
      "name": "i_LIQUIDATION_THRESHOLD",
      "outputs": [
        {
          "internalType": "uint8",
          "name": "",
          "type": "uint8"
        }
      ],
      "stateMutability": "view",
      "type": "function"
    },
    {
      "inputs": [],
      "name": "owner",
      "outputs": [
        {
          "internalType": "address",
          "name": "",
          "type": "address"
        }
      ],
      "stateMutability": "view",
      "type": "function"
    },
    {
      "inputs": [],
      "name": "priceFeed",
      "outputs": [
        {
          "internalType": "contract AggregatorV3Interface",
          "name": "",
          "type": "address"
        }
      ],
      "stateMutability": "view",
      "type": "function"
    },
    {
      "inputs": [],
      "name": "renounceOwnership",
      "outputs": [],
      "stateMutability": "nonpayable",
      "type": "function"
    },
    {
      "inputs": [
        {
          "internalType": "address",
          "name": "",
          "type": "address"
        }
      ],
      "name": "s_accountsToEthBorrow",
      "outputs": [
        {
          "internalType": "uint256",
          "name": "",
          "type": "uint256"
        }
      ],
      "stateMutability": "view",
      "type": "function"
    },
    {
      "inputs": [
        {
          "internalType": "address",
          "name": "",
          "type": "address"
        }
      ],
      "name": "s_accountsToEthDeposit",
      "outputs": [
        {
          "internalType": "uint256",
          "name": "",
          "type": "uint256"
        }
      ],
      "stateMutability": "view",
      "type": "function"
    },
    {
      "inputs": [
        {
          "internalType": "address",
          "name": "",
          "type": "address"
        },
        {
          "internalType": "address",
          "name": "",
          "type": "address"
        },
        {
          "internalType": "uint256",
          "name": "",
          "type": "uint256"
        }
      ],
      "name": "s_accountsToNFTDeposits",
      "outputs": [
        {
          "internalType": "uint256",
          "name": "",
          "type": "uint256"
        }
      ],
      "stateMutability": "view",
      "type": "function"
    },
    {
      "inputs": [
        {
          "internalType": "uint256",
          "name": "",
          "type": "uint256"
        }
      ],
      "name": "s_allowedNFTs",
      "outputs": [
        {
          "internalType": "address",
          "name": "",
          "type": "address"
        }
      ],
      "stateMutability": "view",
      "type": "function"
    },
    {
      "inputs": [],
      "name": "s_borrowPower",
      "outputs": [
        {
          "internalType": "uint256",
          "name": "",
          "type": "uint256"
        }
      ],
      "stateMutability": "view",
      "type": "function"
    },
    {
      "inputs": [
        {
          "internalType": "address",
          "name": "",
          "type": "address"
        }
      ],
      "name": "s_nftFloorEthValue",
      "outputs": [
        {
          "internalType": "uint256",
          "name": "",
          "type": "uint256"
        }
      ],
      "stateMutability": "view",
      "type": "function"
    },
    {
      "inputs": [],
      "name": "s_totalAllowedNFTs",
      "outputs": [
        {
          "internalType": "uint256",
          "name": "",
          "type": "uint256"
        }
      ],
      "stateMutability": "view",
      "type": "function"
    },
    {
      "inputs": [],
      "name": "s_treasuryEth",
      "outputs": [
        {
          "internalType": "uint256",
          "name": "",
          "type": "uint256"
        }
      ],
      "stateMutability": "view",
      "type": "function"
    },
    {
      "inputs": [
        {
          "internalType": "address",
          "name": "nft",
          "type": "address"
        },
        {
          "internalType": "uint256",
          "name": "amount",
          "type": "uint256"
        }
      ],
      "name": "setNFTFloorEthValue",
      "outputs": [],
      "stateMutability": "nonpayable",
      "type": "function"
    },
    {
      "inputs": [
        {
          "internalType": "address",
          "name": "newOwner",
          "type": "address"
        }
      ],
      "name": "transferOwnership",
      "outputs": [],
      "stateMutability": "nonpayable",
      "type": "function"
    },
    {
      "inputs": [
        {
          "internalType": "uint256",
          "name": "amount",
          "type": "uint256"
        }
      ],
      "name": "withdrawEth",
      "outputs": [],
      "stateMutability": "payable",
      "type": "function"
    },
    {
      "inputs": [
        {
          "internalType": "address",
          "name": "nft",
          "type": "address"
        },
        {
          "internalType": "uint256",
          "name": "tokenId",
          "type": "uint256"
        }
      ],
      "name": "withdrawNFT",
      "outputs": [],
      "stateMutability": "nonpayable",
      "type": "function"
    }
  ],
  "bytecode": "0x60c0604052601e600755606460ff1660809060ff1660f81b8152506251fccf60a0908152503480156200003157600080fd5b5060405162002c2a38038062002c2a8339818101604052810190620000579190620001ac565b60016000819055506200007f62000073620000c760201b60201c565b620000cf60201b60201c565b80600a60006101000a81548173ffffffffffffffffffffffffffffffffffffffff021916908373ffffffffffffffffffffffffffffffffffffffff1602179055505062000231565b600033905090565b6000600160009054906101000a900473ffffffffffffffffffffffffffffffffffffffff16905081600160006101000a81548173ffffffffffffffffffffffffffffffffffffffff021916908373ffffffffffffffffffffffffffffffffffffffff1602179055508173ffffffffffffffffffffffffffffffffffffffff168173ffffffffffffffffffffffffffffffffffffffff167f8be0079c531659141344cd1fd0a4f28419497f9722a3daafe3b4186f6b6457e060405160405180910390a35050565b600081519050620001a68162000217565b92915050565b600060208284031215620001c557620001c462000212565b5b6000620001d58482850162000195565b91505092915050565b6000620001eb82620001f2565b9050919050565b600073ffffffffffffffffffffffffffffffffffffffff82169050919050565b600080fd5b6200022281620001de565b81146200022e57600080fd5b50565b60805160f81c60a0516129bb6200026f600039600081816107cf015261105a015260008181610a98015281816113080152611d8201526129bb6000f3fe60806040526004361061019c5760003560e01c8063846006c7116100ec578063c311d0491161008a578063e8980c9e11610064578063e8980c9e1461060a578063f2fde38b14610635578063f6326fb31461065e578063ff8e4d4d146106685761019c565b8063c311d04914610586578063cf60d456146105a2578063d00f0c9b146105cd5761019c565b80639b5b9b18116100c65780639b5b9b18146104ba5780639c813c2b146104e3578063ad9f2a3514610520578063b31bd9c4146105495761019c565b8063846006c7146104155780638da5cb5b1461045257806398d7fbd81461047d5761019c565b80632914ebc81161015957806369354f781161013357806369354f781461036b578063715018a614610396578063741bef1a146103ad578063843e7e11146103d85761019c565b80632914ebc8146102da5780633293bbb9146103175780636088e93a146103425761019c565b8063027895b2146101a1578063030c3c58146101de578063085542731461021b5780630b03c6cd1461023757806311e9a95e14610274578063196e609d1461029d575b600080fd5b3480156101ad57600080fd5b506101c860048036038101906101c39190612259565b6106a5565b6040516101d591906125b2565b60405180910390f35b3480156101ea57600080fd5b5061020560048036038101906102009190612259565b6106ee565b60405161021291906125b2565b60405180910390f35b61023560048036038101906102309190612346565b610956565b005b34801561024357600080fd5b5061025e60048036038101906102599190612259565b610baf565b60405161026b91906125b2565b60405180910390f35b34801561028057600080fd5b5061029b60048036038101906102969190612259565b610bc7565b005b3480156102a957600080fd5b506102c460048036038101906102bf9190612346565b610c90565b6040516102d191906125b2565b60405180910390f35b3480156102e657600080fd5b5061030160048036038101906102fc9190612259565b610cce565b60405161030e91906125b2565b60405180910390f35b34801561032357600080fd5b5061032c610d8c565b60405161033991906125b2565b60405180910390f35b34801561034e57600080fd5b5061036960048036038101906103649190612306565b610d92565b005b34801561037757600080fd5b50610380611530565b60405161038d91906125b2565b60405180910390f35b3480156103a257600080fd5b506103ab611536565b005b3480156103b957600080fd5b506103c261154a565b6040516103cf9190612537565b60405180910390f35b3480156103e457600080fd5b506103ff60048036038101906103fa9190612346565b611570565b60405161040c9190612493565b60405180910390f35b34801561042157600080fd5b5061043c60048036038101906104379190612259565b6115af565b60405161044991906125b2565b60405180910390f35b34801561045e57600080fd5b506104676115c7565b6040516104749190612493565b60405180910390f35b34801561048957600080fd5b506104a4600480360381019061049f9190612259565b6115f1565b6040516104b191906125b2565b60405180910390f35b3480156104c657600080fd5b506104e160048036038101906104dc9190612306565b611673565b005b3480156104ef57600080fd5b5061050a60048036038101906105059190612259565b6119aa565b60405161051791906125b2565b60405180910390f35b34801561052c57600080fd5b5061054760048036038101906105429190612306565b6119c2565b005b34801561055557600080fd5b50610570600480360381019061056b91906122b3565b611a9d565b60405161057d91906125b2565b60405180910390f35b6105a0600480360381019061059b9190612346565b611adb565b005b3480156105ae57600080fd5b506105b7611d44565b6040516105c491906125b2565b60405180910390f35b3480156105d957600080fd5b506105f460048036038101906105ef9190612259565b611d4a565b60405161060191906125b2565b60405180910390f35b34801561061657600080fd5b5061061f611d80565b60405161062c91906125cd565b60405180910390f35b34801561064157600080fd5b5061065c60048036038101906106579190612259565b611da4565b005b610666611e28565b005b34801561067457600080fd5b5061068f600480360381019061068a9190612259565b611f7a565b60405161069c91906125b2565b60405180910390f35b6000600860008373ffffffffffffffffffffffffffffffffffffffff1673ffffffffffffffffffffffffffffffffffffffff168152602001908152602001600020549050919050565b6000806000905060005b60038054905081101561094c5760005b600260008673ffffffffffffffffffffffffffffffffffffffff1673ffffffffffffffffffffffffffffffffffffffff16815260200190815260200160002060006003848154811061075d5761075c612854565b5b9060005260206000200160009054906101000a900473ffffffffffffffffffffffffffffffffffffffff1673ffffffffffffffffffffffffffffffffffffffff1673ffffffffffffffffffffffffffffffffffffffff16815260200190815260200160002080549050811015610938577f0000000000000000000000000000000000000000000000000000000000000000600260008773ffffffffffffffffffffffffffffffffffffffff1673ffffffffffffffffffffffffffffffffffffffff16815260200190815260200160002060006003858154811061084357610842612854565b5b9060005260206000200160009054906101000a900473ffffffffffffffffffffffffffffffffffffffff1673ffffffffffffffffffffffffffffffffffffffff1673ffffffffffffffffffffffffffffffffffffffff16815260200190815260200160002082815481106108ba576108b9612854565b5b906000526020600020015414610925576000610913600384815481106108e3576108e2612854565b5b9060005260206000200160009054906101000a900473ffffffffffffffffffffffffffffffffffffffff166115f1565b9050808461092191906125f9565b9350505b8080610930906127ad565b915050610708565b508080610944906127ad565b9150506106f8565b5080915050919050565b6002600054141561099c576040517f08c379a000000000000000000000000000000000000000000000000000000000815260040161099390612592565b60405180910390fd5b600260008190555080600081116109ea57806040517fc06ceeb90000000000000000000000000000000000000000000000000000000081526004016109e191906125b2565b60405180910390fd5b600954821115610a335733826040517f45e6ce9c000000000000000000000000000000000000000000000000000000008152600401610a2a92919061250e565b60405180910390fd5b81600660003373ffffffffffffffffffffffffffffffffffffffff1673ffffffffffffffffffffffffffffffffffffffff1681526020019081526020016000206000828254610a8291906125f9565b925050819055506000610a9433610cce565b90507f000000000000000000000000000000000000000000000000000000000000000060ff16811015610afe57336040517f49441e98000000000000000000000000000000000000000000000000000000008152600401610af59190612493565b60405180910390fd5b8260096000828254610b1091906126da565b925050819055503373ffffffffffffffffffffffffffffffffffffffff166108fc849081150290604051600060405180830381858888f19350505050158015610b5d573d6000803e3d6000fd5b50823373ffffffffffffffffffffffffffffffffffffffff167fe830fa6e685fba2ba2f32c76f5db25aff3acbea74cecf28759cec44ceaf9e6b660405160405180910390a35050600160008190555050565b60056020528060005260406000206000915090505481565b610bcf611fc3565b6003819080600181540180825580915050600190039060005260206000200160009091909190916101000a81548173ffffffffffffffffffffffffffffffffffffffff021916908373ffffffffffffffffffffffffffffffffffffffff16021790555060046000815480929190610c45906127ad565b91905055508073ffffffffffffffffffffffffffffffffffffffff167f8b16df08b6a45161a2accfac7e351325ff3df2aed213dd821e0be370c010831c60405160405180910390a250565b6000610cc7600a60009054906101000a900473ffffffffffffffffffffffffffffffffffffffff168361204190919063ffffffff16565b9050919050565b600080610cda83611d4a565b90506000610d52600a60009054906101000a900473ffffffffffffffffffffffffffffffffffffffff16600660008773ffffffffffffffffffffffffffffffffffffffff1673ffffffffffffffffffffffffffffffffffffffff1681526020019081526020016000205461204190919063ffffffff16565b9050600080821115610d7d5781606484610d6c9190612680565b610d76919061264f565b9050610d81565b8290505b809350505050919050565b60075481565b816000600860008373ffffffffffffffffffffffffffffffffffffffff1673ffffffffffffffffffffffffffffffffffffffff168152602001908152602001600020541415610e1857806040517f13275efe000000000000000000000000000000000000000000000000000000008152600401610e0f9190612493565b60405180910390fd5b60026000541415610e5e576040517f08c379a0000000000000000000000000000000000000000000000000000000008152600401610e5590612592565b60405180910390fd5b60026000819055506001600260003373ffffffffffffffffffffffffffffffffffffffff1673ffffffffffffffffffffffffffffffffffffffff16815260200190815260200160002060008573ffffffffffffffffffffffffffffffffffffffff1673ffffffffffffffffffffffffffffffffffffffff168152602001908152602001600020805490501015610f2d5733836040517f7d7c26bc000000000000000000000000000000000000000000000000000000008152600401610f249291906124ae565b60405180910390fd5b6000805b600260003373ffffffffffffffffffffffffffffffffffffffff1673ffffffffffffffffffffffffffffffffffffffff16815260200190815260200160002060008673ffffffffffffffffffffffffffffffffffffffff1673ffffffffffffffffffffffffffffffffffffffff168152602001908152602001600020805490508110156112725783600260003373ffffffffffffffffffffffffffffffffffffffff1673ffffffffffffffffffffffffffffffffffffffff16815260200190815260200160002060008773ffffffffffffffffffffffffffffffffffffffff1673ffffffffffffffffffffffffffffffffffffffff168152602001908152602001600020828154811061104757611046612854565b5b9060005260206000200154141561125f577f0000000000000000000000000000000000000000000000000000000000000000600260003373ffffffffffffffffffffffffffffffffffffffff1673ffffffffffffffffffffffffffffffffffffffff16815260200190815260200160002060008773ffffffffffffffffffffffffffffffffffffffff1673ffffffffffffffffffffffffffffffffffffffff168152602001908152602001600020828154811061110757611106612854565b5b9060005260206000200181905550600260003373ffffffffffffffffffffffffffffffffffffffff1673ffffffffffffffffffffffffffffffffffffffff16815260200190815260200160002060008673ffffffffffffffffffffffffffffffffffffffff1673ffffffffffffffffffffffffffffffffffffffff16815260200190815260200160002080549050600260003373ffffffffffffffffffffffffffffffffffffffff1673ffffffffffffffffffffffffffffffffffffffff16815260200190815260200160002060008773ffffffffffffffffffffffffffffffffffffffff1673ffffffffffffffffffffffffffffffffffffffff168152602001908152602001600020828154811061122357611222612854565b5b90600052602060002001547fa7b08929aff730e43922f7fea391547dac445cc7892f6c31f71da6c35034753660405160405180910390a3600191505b808061126a906127ad565b915050610f31565b50806112b557826040517f6caeb1300000000000000000000000000000000000000000000000000000000081526004016112ac91906125b2565b60405180910390fd5b60006112c033610cce565b9050803373ffffffffffffffffffffffffffffffffffffffff167fed345874c58beb0ef7c05e04d528cdd98fcc16d511d1e5b448e4337c20b6644e60405160405180910390a37f000000000000000000000000000000000000000000000000000000000000000060ff1681101561136e57336040517f49441e980000000000000000000000000000000000000000000000000000000081526004016113659190612493565b60405180910390fd5b8473ffffffffffffffffffffffffffffffffffffffff166323b872dd3033876040518463ffffffff1660e01b81526004016113ab939291906124d7565b600060405180830381600087803b1580156113c557600080fd5b505af11580156113d9573d6000803e3d6000fd5b50505050833373ffffffffffffffffffffffffffffffffffffffff167f884edad9ce6fa2440d8a54cc123490eb96d2768479d49ff9c7366125a942436460405160405180910390a360008573ffffffffffffffffffffffffffffffffffffffff16636352211e866040518263ffffffff1660e01b815260040161145c91906125b2565b60206040518083038186803b15801561147457600080fd5b505afa158015611488573d6000803e3d6000fd5b505050506040513d601f19601f820116820180604052508101906114ac9190612286565b90503373ffffffffffffffffffffffffffffffffffffffff168173ffffffffffffffffffffffffffffffffffffffff16146115205785856040517fa226991200000000000000000000000000000000000000000000000000000000815260040161151792919061250e565b60405180910390fd5b5050506001600081905550505050565b60095481565b61153e611fc3565b611548600061207d565b565b600a60009054906101000a900473ffffffffffffffffffffffffffffffffffffffff1681565b6003818154811061158057600080fd5b906000526020600020016000915054906101000a900473ffffffffffffffffffffffffffffffffffffffff1681565b60086020528060005260406000206000915090505481565b6000600160009054906101000a900473ffffffffffffffffffffffffffffffffffffffff16905090565b600080611668600a60009054906101000a900473ffffffffffffffffffffffffffffffffffffffff16600860008673ffffffffffffffffffffffffffffffffffffffff1673ffffffffffffffffffffffffffffffffffffffff1681526020019081526020016000205461204190919063ffffffff16565b905080915050919050565b816000600860008373ffffffffffffffffffffffffffffffffffffffff1673ffffffffffffffffffffffffffffffffffffffff1681526020019081526020016000205414156116f957806040517f13275efe0000000000000000000000000000000000000000000000000000000081526004016116f09190612493565b60405180910390fd5b6002600054141561173f576040517f08c379a000000000000000000000000000000000000000000000000000000000815260040161173690612592565b60405180910390fd5b6002600081905550600260003373ffffffffffffffffffffffffffffffffffffffff1673ffffffffffffffffffffffffffffffffffffffff16815260200190815260200160002060008473ffffffffffffffffffffffffffffffffffffffff1673ffffffffffffffffffffffffffffffffffffffff1681526020019081526020016000208290806001815401808255809150506001900390600052602060002001600090919091909150558273ffffffffffffffffffffffffffffffffffffffff166323b872dd3330856040518463ffffffff1660e01b8152600401611827939291906124d7565b600060405180830381600087803b15801561184157600080fd5b505af1158015611855573d6000803e3d6000fd5b50505050813373ffffffffffffffffffffffffffffffffffffffff167fe1fffcc4923d04b559f4d29a8bfc6cda04eb5b0d3c460751c2402c5c5cc9109c60405160405180910390a360008373ffffffffffffffffffffffffffffffffffffffff16636352211e846040518263ffffffff1660e01b81526004016118d891906125b2565b60206040518083038186803b1580156118f057600080fd5b505afa158015611904573d6000803e3d6000fd5b505050506040513d601f19601f820116820180604052508101906119289190612286565b90503073ffffffffffffffffffffffffffffffffffffffff168173ffffffffffffffffffffffffffffffffffffffff161461199c5783836040517fb25cefcd00000000000000000000000000000000000000000000000000000000815260040161199392919061250e565b60405180910390fd5b506001600081905550505050565b60066020528060005260406000206000915090505481565b6119ca611fc3565b8060008111611a1057806040517fc06ceeb9000000000000000000000000000000000000000000000000000000008152600401611a0791906125b2565b60405180910390fd5b81600860008573ffffffffffffffffffffffffffffffffffffffff1673ffffffffffffffffffffffffffffffffffffffff16815260200190815260200160002081905550818373ffffffffffffffffffffffffffffffffffffffff167f5febcde2e3902a22a4b6c4f288cd05ba08d323906168eaaf73167e52f85337d260405160405180910390a3505050565b60026020528260005260406000206020528160005260406000208181548110611ac557600080fd5b9060005260206000200160009250925050505481565b8060008111611b2157806040517fc06ceeb9000000000000000000000000000000000000000000000000000000008152600401611b1891906125b2565b60405180910390fd5b60026000541415611b67576040517f08c379a0000000000000000000000000000000000000000000000000000000008152600401611b5e90612592565b60405180910390fd5b6002600081905550600560003373ffffffffffffffffffffffffffffffffffffffff1673ffffffffffffffffffffffffffffffffffffffff16815260200190815260200160002054821115611bf55733826040517f09165000000000000000000000000000000000000000000000000000000000008152600401611bec92919061250e565b60405180910390fd5b600954821115611c3e5733826040517f45e6ce9c000000000000000000000000000000000000000000000000000000008152600401611c3592919061250e565b60405180910390fd5b81600560003373ffffffffffffffffffffffffffffffffffffffff1673ffffffffffffffffffffffffffffffffffffffff1681526020019081526020016000206000828254611c8d91906126da565b925050819055508160096000828254611ca691906126da565b925050819055503373ffffffffffffffffffffffffffffffffffffffff166108fc839081150290604051600060405180830381858888f19350505050158015611cf3573d6000803e3d6000fd5b50343373ffffffffffffffffffffffffffffffffffffffff167fccbd99ba6da8f29b2a4f65e474e3c3973564d356c162c08d45f3dc7f0cb5b3aa60405160405180910390a360016000819055505050565b60045481565b600080611d56836106ee565b90506000606460075483611d6a9190612680565b611d74919061264f565b90508092505050919050565b7f000000000000000000000000000000000000000000000000000000000000000081565b611dac611fc3565b600073ffffffffffffffffffffffffffffffffffffffff168173ffffffffffffffffffffffffffffffffffffffff161415611e1c576040517f08c379a0000000000000000000000000000000000000000000000000000000008152600401611e1390612552565b60405180910390fd5b611e258161207d565b50565b3460008111611e6e57806040517fc06ceeb9000000000000000000000000000000000000000000000000000000008152600401611e6591906125b2565b60405180910390fd5b60026000541415611eb4576040517f08c379a0000000000000000000000000000000000000000000000000000000008152600401611eab90612592565b60405180910390fd5b600260008190555034600560003373ffffffffffffffffffffffffffffffffffffffff1673ffffffffffffffffffffffffffffffffffffffff1681526020019081526020016000206000828254611f0b91906125f9565b925050819055503460096000828254611f2491906125f9565b92505081905550343373ffffffffffffffffffffffffffffffffffffffff167f66ff7c8f71ccc7c36152a41920d0d3b46ef3034359f76aa1498ed4478c204b5c60405160405180910390a3600160008190555050565b6000600660008373ffffffffffffffffffffffffffffffffffffffff1673ffffffffffffffffffffffffffffffffffffffff168152602001908152602001600020549050919050565b611fcb612143565b73ffffffffffffffffffffffffffffffffffffffff16611fe96115c7565b73ffffffffffffffffffffffffffffffffffffffff161461203f576040517f08c379a000000000000000000000000000000000000000000000000000000000815260040161203690612572565b60405180910390fd5b565b60008061204d8361214b565b90506000670de0b6b3a764000082866120669190612680565b612070919061264f565b9050809250505092915050565b6000600160009054906101000a900473ffffffffffffffffffffffffffffffffffffffff16905081600160006101000a81548173ffffffffffffffffffffffffffffffffffffffff021916908373ffffffffffffffffffffffffffffffffffffffff1602179055508173ffffffffffffffffffffffffffffffffffffffff168173ffffffffffffffffffffffffffffffffffffffff167f8be0079c531659141344cd1fd0a4f28419497f9722a3daafe3b4186f6b6457e060405160405180910390a35050565b600033905090565b6000808273ffffffffffffffffffffffffffffffffffffffff1663feaf968c6040518163ffffffff1660e01b815260040160a06040518083038186803b15801561219457600080fd5b505afa1580156121a8573d6000803e3d6000fd5b505050506040513d601f19601f820116820180604052508101906121cc9190612373565b50505091505080915050919050565b6000813590506121ea81612929565b92915050565b6000815190506121ff81612929565b92915050565b60008151905061221481612940565b92915050565b60008135905061222981612957565b92915050565b60008151905061223e81612957565b92915050565b6000815190506122538161296e565b92915050565b60006020828403121561226f5761226e612883565b5b600061227d848285016121db565b91505092915050565b60006020828403121561229c5761229b612883565b5b60006122aa848285016121f0565b91505092915050565b6000806000606084860312156122cc576122cb612883565b5b60006122da868287016121db565b93505060206122eb868287016121db565b92505060406122fc8682870161221a565b9150509250925092565b6000806040838503121561231d5761231c612883565b5b600061232b858286016121db565b925050602061233c8582860161221a565b9150509250929050565b60006020828403121561235c5761235b612883565b5b600061236a8482850161221a565b91505092915050565b600080600080600060a0868803121561238f5761238e612883565b5b600061239d88828901612244565b95505060206123ae88828901612205565b94505060406123bf8882890161222f565b93505060606123d08882890161222f565b92505060806123e188828901612244565b9150509295509295909350565b6123f78161270e565b82525050565b61240681612777565b82525050565b60006124196026836125e8565b915061242482612888565b604082019050919050565b600061243c6020836125e8565b9150612447826128d7565b602082019050919050565b600061245f601f836125e8565b915061246a82612900565b602082019050919050565b61247e8161274a565b82525050565b61248d81612754565b82525050565b60006020820190506124a860008301846123ee565b92915050565b60006040820190506124c360008301856123ee565b6124d060208301846123ee565b9392505050565b60006060820190506124ec60008301866123ee565b6124f960208301856123ee565b6125066040830184612475565b949350505050565b600060408201905061252360008301856123ee565b6125306020830184612475565b9392505050565b600060208201905061254c60008301846123fd565b92915050565b6000602082019050818103600083015261256b8161240c565b9050919050565b6000602082019050818103600083015261258b8161242f565b9050919050565b600060208201905081810360008301526125ab81612452565b9050919050565b60006020820190506125c76000830184612475565b92915050565b60006020820190506125e26000830184612484565b92915050565b600082825260208201905092915050565b60006126048261274a565b915061260f8361274a565b9250827fffffffffffffffffffffffffffffffffffffffffffffffffffffffffffffffff03821115612644576126436127f6565b5b828201905092915050565b600061265a8261274a565b91506126658361274a565b92508261267557612674612825565b5b828204905092915050565b600061268b8261274a565b91506126968361274a565b9250817fffffffffffffffffffffffffffffffffffffffffffffffffffffffffffffffff04831182151516156126cf576126ce6127f6565b5b828202905092915050565b60006126e58261274a565b91506126f08361274a565b925082821015612703576127026127f6565b5b828203905092915050565b60006127198261272a565b9050919050565b6000819050919050565b600073ffffffffffffffffffffffffffffffffffffffff82169050919050565b6000819050919050565b600060ff82169050919050565b600069ffffffffffffffffffff82169050919050565b600061278282612789565b9050919050565b60006127948261279b565b9050919050565b60006127a68261272a565b9050919050565b60006127b88261274a565b91507fffffffffffffffffffffffffffffffffffffffffffffffffffffffffffffffff8214156127eb576127ea6127f6565b5b600182019050919050565b7f4e487b7100000000000000000000000000000000000000000000000000000000600052601160045260246000fd5b7f4e487b7100000000000000000000000000000000000000000000000000000000600052601260045260246000fd5b7f4e487b7100000000000000000000000000000000000000000000000000000000600052603260045260246000fd5b600080fd5b7f4f776e61626c653a206e6577206f776e657220697320746865207a65726f206160008201527f6464726573730000000000000000000000000000000000000000000000000000602082015250565b7f4f776e61626c653a2063616c6c6572206973206e6f7420746865206f776e6572600082015250565b7f5265656e7472616e637947756172643a207265656e7472616e742063616c6c00600082015250565b6129328161270e565b811461293d57600080fd5b50565b61294981612720565b811461295457600080fd5b50565b6129608161274a565b811461296b57600080fd5b50565b61297781612761565b811461298257600080fd5b5056fea2646970667358221220cd67a6378dbb3d20a6970b5c8cc1fbafd31d552770e763726b677c824664684664736f6c63430008070033",
  "linkReferences": {},
  "deployedLinkReferences": {}
}