{
  "_format": "hh-sol-artifact-1",
  "contractName": "NFTLending",
  "sourceName": "contracts/NFTLending.sol",
  "abi": [
    {
      "inputs": [
        {
          "internalType": "address",
          "name": "priceFeedAddress",
          "type": "address"
        }
      ],
      "stateMutability": "nonpayable",
      "type": "constructor"
    },
    {
      "inputs": [
        {
          "internalType": "address",
          "name": "nft",
          "type": "address"
        },
        {
          "internalType": "uint256",
          "name": "tokenId",
          "type": "uint256"
        }
      ],
      "name": "DepositFailed",
      "type": "error"
    },
    {
      "inputs": [
        {
          "internalType": "address",
          "name": "account",
          "type": "address"
        }
      ],
      "name": "InsufficientCollateral",
      "type": "error"
    },
    {
      "inputs": [
        {
          "internalType": "address",
          "name": "account",
          "type": "address"
        },
        {
          "internalType": "uint256",
          "name": "amount",
          "type": "uint256"
        }
      ],
      "name": "InsufficientFunds",
      "type": "error"
    },
    {
      "inputs": [
        {
          "internalType": "uint256",
          "name": "amount",
          "type": "uint256"
        }
      ],
      "name": "MustBeGreaterThanZero",
      "type": "error"
    },
    {
      "inputs": [
        {
          "internalType": "address",
          "name": "nft",
          "type": "address"
        }
      ],
      "name": "NFTNowAllowed",
      "type": "error"
    },
    {
      "inputs": [
        {
          "internalType": "address",
          "name": "account",
          "type": "address"
        },
        {
          "internalType": "uint256",
          "name": "amount",
          "type": "uint256"
        }
      ],
      "name": "NegativeTreasury",
      "type": "error"
    },
    {
      "inputs": [
        {
          "internalType": "address",
          "name": "account",
          "type": "address"
        },
        {
          "internalType": "address",
          "name": "nft",
          "type": "address"
        }
      ],
      "name": "NoDeposit",
      "type": "error"
    },
    {
      "inputs": [
        {
          "internalType": "uint256",
          "name": "tokenId",
          "type": "uint256"
        }
      ],
      "name": "TokenNotFound",
      "type": "error"
    },
    {
      "inputs": [
        {
          "internalType": "address",
          "name": "nft",
          "type": "address"
        },
        {
          "internalType": "uint256",
          "name": "tokenId",
          "type": "uint256"
        }
      ],
      "name": "WithdrawFailed",
      "type": "error"
    },
    {
      "anonymous": false,
      "inputs": [
        {
          "indexed": true,
          "internalType": "address",
          "name": "account",
          "type": "address"
        },
        {
          "indexed": true,
          "internalType": "uint256",
          "name": "amount",
          "type": "uint256"
        }
      ],
      "name": "BorrowEth",
      "type": "event"
    },
    {
      "anonymous": false,
      "inputs": [
        {
          "indexed": true,
          "internalType": "uint256",
          "name": "tokenId",
          "type": "uint256"
        },
        {
          "indexed": true,
          "internalType": "uint256",
          "name": "lengths",
          "type": "uint256"
        }
      ],
      "name": "DeleteDeposit",
      "type": "event"
    },
    {
      "anonymous": false,
      "inputs": [
        {
          "indexed": true,
          "internalType": "address",
          "name": "account",
          "type": "address"
        },
        {
          "indexed": true,
          "internalType": "uint256",
          "name": "tokenId",
          "type": "uint256"
        }
      ],
      "name": "Deposit",
      "type": "event"
    },
    {
      "anonymous": false,
      "inputs": [
        {
          "indexed": true,
          "internalType": "address",
          "name": "account",
          "type": "address"
        },
        {
          "indexed": true,
          "internalType": "uint256",
          "name": "amount",
          "type": "uint256"
        }
      ],
      "name": "EthDeposited",
      "type": "event"
    },
    {
      "anonymous": false,
      "inputs": [
        {
          "indexed": true,
          "internalType": "address",
          "name": "account",
          "type": "address"
        },
        {
          "indexed": true,
          "internalType": "uint256",
          "name": "userScore",
          "type": "uint256"
        }
      ],
      "name": "HealthScore",
      "type": "event"
    },
    {
      "anonymous": false,
      "inputs": [
        {
          "indexed": true,
          "internalType": "address",
          "name": "account",
          "type": "address"
        },
        {
          "indexed": true,
          "internalType": "uint256",
          "name": "amount",
          "type": "uint256"
        }
      ],
      "name": "LoanRepayment",
      "type": "event"
    },
    {
      "anonymous": false,
      "inputs": [
        {
          "indexed": true,
          "internalType": "address",
          "name": "nft",
          "type": "address"
        },
        {
          "indexed": true,
          "internalType": "uint256",
          "name": "amount",
          "type": "uint256"
        }
      ],
      "name": "NewFloor",
      "type": "event"
    },
    {
      "anonymous": false,
      "inputs": [
        {
          "indexed": true,
          "internalType": "address",
          "name": "previousOwner",
          "type": "address"
        },
        {
          "indexed": true,
          "internalType": "address",
          "name": "newOwner",
          "type": "address"
        }
      ],
      "name": "OwnershipTransferred",
      "type": "event"
    },
    {
      "anonymous": false,
      "inputs": [
        {
          "indexed": true,
          "internalType": "address",
          "name": "account",
          "type": "address"
        }
      ],
      "name": "ProjectApproved",
      "type": "event"
    },
    {
      "anonymous": false,
      "inputs": [
        {
          "indexed": true,
          "internalType": "address",
          "name": "account",
          "type": "address"
        },
        {
          "indexed": true,
          "internalType": "uint256",
          "name": "tokenId",
          "type": "uint256"
        }
      ],
      "name": "Withdraw",
      "type": "event"
    },
    {
      "anonymous": false,
      "inputs": [
        {
          "indexed": true,
          "internalType": "address",
          "name": "account",
          "type": "address"
        },
        {
          "indexed": true,
          "internalType": "uint256",
          "name": "amount",
          "type": "uint256"
        }
      ],
      "name": "WithdrawEth",
      "type": "event"
    },
    {
      "inputs": [
        {
          "internalType": "address",
          "name": "user",
          "type": "address"
        }
      ],
      "name": "accountBorrowed",
      "outputs": [
        {
          "internalType": "uint256",
          "name": "",
          "type": "uint256"
        }
      ],
      "stateMutability": "view",
      "type": "function"
    },
    {
      "inputs": [
        {
          "internalType": "address",
          "name": "user",
          "type": "address"
        }
      ],
      "name": "accountCollateral",
      "outputs": [
        {
          "internalType": "uint256",
          "name": "",
          "type": "uint256"
        }
      ],
      "stateMutability": "view",
      "type": "function"
    },
    {
      "inputs": [
        {
          "internalType": "address",
          "name": "nft",
          "type": "address"
        }
      ],
      "name": "approveNFT",
      "outputs": [],
      "stateMutability": "nonpayable",
      "type": "function"
    },
    {
      "inputs": [
        {
          "internalType": "uint256",
          "name": "amount",
          "type": "uint256"
        }
      ],
      "name": "borrowEth",
      "outputs": [],
      "stateMutability": "payable",
      "type": "function"
    },
    {
      "inputs": [
        {
          "internalType": "address",
          "name": "user",
          "type": "address"
        }
      ],
      "name": "borrowMaxUSD",
      "outputs": [
        {
          "internalType": "uint256",
          "name": "",
          "type": "uint256"
        }
      ],
      "stateMutability": "view",
      "type": "function"
    },
    {
      "inputs": [],
      "name": "depositETH",
      "outputs": [],
      "stateMutability": "payable",
      "type": "function"
    },
    {
      "inputs": [
        {
          "internalType": "address",
          "name": "nft",
          "type": "address"
        },
        {
          "internalType": "uint256",
          "name": "tokenId",
          "type": "uint256"
        }
      ],
      "name": "depositNFT",
      "outputs": [],
      "stateMutability": "nonpayable",
      "type": "function"
    },
    {
      "inputs": [
        {
          "internalType": "uint256",
          "name": "amount",
          "type": "uint256"
        }
      ],
      "name": "ethToUSD",
      "outputs": [
        {
          "internalType": "uint256",
          "name": "",
          "type": "uint256"
        }
      ],
      "stateMutability": "view",
      "type": "function"
    },
    {
      "inputs": [
        {
          "internalType": "address",
          "name": "nft",
          "type": "address"
        }
      ],
      "name": "getNFTFloorEthValue",
      "outputs": [
        {
          "internalType": "uint256",
          "name": "",
          "type": "uint256"
        }
      ],
      "stateMutability": "view",
      "type": "function"
    },
    {
      "inputs": [
        {
          "internalType": "address",
          "name": "nft",
          "type": "address"
        }
      ],
      "name": "getNFTFloorUSDValue",
      "outputs": [
        {
          "internalType": "uint256",
          "name": "",
          "type": "uint256"
        }
      ],
      "stateMutability": "view",
      "type": "function"
    },
    {
      "inputs": [
        {
          "internalType": "address",
          "name": "account",
          "type": "address"
        }
      ],
      "name": "healthScore",
      "outputs": [
        {
          "internalType": "uint256",
          "name": "",
          "type": "uint256"
        }
      ],
      "stateMutability": "view",
      "type": "function"
    },
    {
      "inputs": [],
      "name": "i_LIQUIDATION_THRESHOLD",
      "outputs": [
        {
          "internalType": "uint8",
          "name": "",
          "type": "uint8"
        }
      ],
      "stateMutability": "view",
      "type": "function"
    },
    {
      "inputs": [],
      "name": "owner",
      "outputs": [
        {
          "internalType": "address",
          "name": "",
          "type": "address"
        }
      ],
      "stateMutability": "view",
      "type": "function"
    },
    {
      "inputs": [],
      "name": "payBackETH",
      "outputs": [],
      "stateMutability": "payable",
      "type": "function"
    },
    {
      "inputs": [],
      "name": "priceFeed",
      "outputs": [
        {
          "internalType": "contract AggregatorV3Interface",
          "name": "",
          "type": "address"
        }
      ],
      "stateMutability": "view",
      "type": "function"
    },
    {
      "inputs": [],
      "name": "renounceOwnership",
      "outputs": [],
      "stateMutability": "nonpayable",
      "type": "function"
    },
    {
      "inputs": [
        {
          "internalType": "address",
          "name": "",
          "type": "address"
        }
      ],
      "name": "s_accountsToEthBorrow",
      "outputs": [
        {
          "internalType": "uint256",
          "name": "",
          "type": "uint256"
        }
      ],
      "stateMutability": "view",
      "type": "function"
    },
    {
      "inputs": [
        {
          "internalType": "address",
          "name": "",
          "type": "address"
        }
      ],
      "name": "s_accountsToEthDeposit",
      "outputs": [
        {
          "internalType": "uint256",
          "name": "",
          "type": "uint256"
        }
      ],
      "stateMutability": "view",
      "type": "function"
    },
    {
      "inputs": [
        {
          "internalType": "address",
          "name": "",
          "type": "address"
        },
        {
          "internalType": "address",
          "name": "",
          "type": "address"
        },
        {
          "internalType": "uint256",
          "name": "",
          "type": "uint256"
        }
      ],
      "name": "s_accountsToNFTDeposits",
      "outputs": [
        {
          "internalType": "uint256",
          "name": "",
          "type": "uint256"
        }
      ],
      "stateMutability": "view",
      "type": "function"
    },
    {
      "inputs": [
        {
          "internalType": "uint256",
          "name": "",
          "type": "uint256"
        }
      ],
      "name": "s_allowedNFTs",
      "outputs": [
        {
          "internalType": "address",
          "name": "",
          "type": "address"
        }
      ],
      "stateMutability": "view",
      "type": "function"
    },
    {
      "inputs": [],
      "name": "s_borrowPower",
      "outputs": [
        {
          "internalType": "uint256",
          "name": "",
          "type": "uint256"
        }
      ],
      "stateMutability": "view",
      "type": "function"
    },
    {
      "inputs": [
        {
          "internalType": "address",
          "name": "",
          "type": "address"
        }
      ],
      "name": "s_nftFloorEthValue",
      "outputs": [
        {
          "internalType": "uint256",
          "name": "",
          "type": "uint256"
        }
      ],
      "stateMutability": "view",
      "type": "function"
    },
    {
      "inputs": [],
      "name": "s_totalAllowedNFTs",
      "outputs": [
        {
          "internalType": "uint256",
          "name": "",
          "type": "uint256"
        }
      ],
      "stateMutability": "view",
      "type": "function"
    },
    {
      "inputs": [],
      "name": "s_treasuryEth",
      "outputs": [
        {
          "internalType": "uint256",
          "name": "",
          "type": "uint256"
        }
      ],
      "stateMutability": "view",
      "type": "function"
    },
    {
      "inputs": [
        {
          "internalType": "address",
          "name": "nft",
          "type": "address"
        },
        {
          "internalType": "uint256",
          "name": "amount",
          "type": "uint256"
        }
      ],
      "name": "setNFTFloorEthValue",
      "outputs": [],
      "stateMutability": "nonpayable",
      "type": "function"
    },
    {
      "inputs": [
        {
          "internalType": "address",
          "name": "newOwner",
          "type": "address"
        }
      ],
      "name": "transferOwnership",
      "outputs": [],
      "stateMutability": "nonpayable",
      "type": "function"
    },
    {
      "inputs": [
        {
          "internalType": "uint256",
          "name": "amount",
          "type": "uint256"
        }
      ],
      "name": "withdrawEth",
      "outputs": [],
      "stateMutability": "payable",
      "type": "function"
    },
    {
      "inputs": [
        {
          "internalType": "address",
          "name": "nft",
          "type": "address"
        },
        {
          "internalType": "uint256",
          "name": "tokenId",
          "type": "uint256"
        }
      ],
      "name": "withdrawNFT",
      "outputs": [],
      "stateMutability": "nonpayable",
      "type": "function"
    }
  ],
  "bytecode": "0x60c0604052601e600755606460ff1660809060ff1660f81b8152506251fccf60a0908152503480156200003157600080fd5b5060405162002ddd38038062002ddd8339818101604052810190620000579190620001ac565b60016000819055506200007f62000073620000c760201b60201c565b620000cf60201b60201c565b80600a60006101000a81548173ffffffffffffffffffffffffffffffffffffffff021916908373ffffffffffffffffffffffffffffffffffffffff1602179055505062000231565b600033905090565b6000600160009054906101000a900473ffffffffffffffffffffffffffffffffffffffff16905081600160006101000a81548173ffffffffffffffffffffffffffffffffffffffff021916908373ffffffffffffffffffffffffffffffffffffffff1602179055508173ffffffffffffffffffffffffffffffffffffffff168173ffffffffffffffffffffffffffffffffffffffff167f8be0079c531659141344cd1fd0a4f28419497f9722a3daafe3b4186f6b6457e060405160405180910390a35050565b600081519050620001a68162000217565b92915050565b600060208284031215620001c557620001c462000212565b5b6000620001d58482850162000195565b91505092915050565b6000620001eb82620001f2565b9050919050565b600073ffffffffffffffffffffffffffffffffffffffff82169050919050565b600080fd5b6200022281620001de565b81146200022e57600080fd5b50565b60805160f81c60a051612b6762000276600039600081816107f401526111f4015260008181610abd01528181610ef6015281816114a20152611f2e0152612b676000f3fe6080604052600436106101b75760003560e01c8063846006c7116100ec578063c311d0491161008a578063e8980c9e11610064578063e8980c9e1461062f578063f2fde38b1461065a578063f6326fb314610683578063ff8e4d4d1461068d576101b7565b8063c311d049146105ab578063cf60d456146105c7578063d00f0c9b146105f2576101b7565b80639b5b9b18116100c65780639b5b9b18146104df5780639c813c2b14610508578063ad9f2a3514610545578063b31bd9c41461056e576101b7565b8063846006c71461043a5780638da5cb5b1461047757806398d7fbd8146104a2576101b7565b80632914ebc81161015957806369354f781161013357806369354f7814610390578063715018a6146103bb578063741bef1a146103d2578063843e7e11146103fd576101b7565b80632914ebc8146102ff5780633293bbb91461033c5780636088e93a14610367576101b7565b80630b03c6cd116101955780630b03c6cd146102525780630b8aba5c1461028f57806311e9a95e14610299578063196e609d146102c2576101b7565b8063027895b2146101bc578063030c3c58146101f95780630855427314610236575b600080fd5b3480156101c857600080fd5b506101e360048036038101906101de9190612405565b6106ca565b6040516101f0919061275e565b60405180910390f35b34801561020557600080fd5b50610220600480360381019061021b9190612405565b610713565b60405161022d919061275e565b60405180910390f35b610250600480360381019061024b91906124f2565b61097b565b005b34801561025e57600080fd5b5061027960048036038101906102749190612405565b610bd4565b604051610286919061275e565b60405180910390f35b610297610bec565b005b3480156102a557600080fd5b506102c060048036038101906102bb9190612405565b610d3e565b005b3480156102ce57600080fd5b506102e960048036038101906102e491906124f2565b610e07565b6040516102f6919061275e565b60405180910390f35b34801561030b57600080fd5b5061032660048036038101906103219190612405565b610e45565b604051610333919061275e565b60405180910390f35b34801561034857600080fd5b50610351610f26565b60405161035e919061275e565b60405180910390f35b34801561037357600080fd5b5061038e600480360381019061038991906124b2565b610f2c565b005b34801561039c57600080fd5b506103a56116ca565b6040516103b2919061275e565b60405180910390f35b3480156103c757600080fd5b506103d06116d0565b005b3480156103de57600080fd5b506103e76116e4565b6040516103f491906126e3565b60405180910390f35b34801561040957600080fd5b50610424600480360381019061041f91906124f2565b61170a565b604051610431919061263f565b60405180910390f35b34801561044657600080fd5b50610461600480360381019061045c9190612405565b611749565b60405161046e919061275e565b60405180910390f35b34801561048357600080fd5b5061048c611761565b604051610499919061263f565b60405180910390f35b3480156104ae57600080fd5b506104c960048036038101906104c49190612405565b61178b565b6040516104d6919061275e565b60405180910390f35b3480156104eb57600080fd5b50610506600480360381019061050191906124b2565b61180d565b005b34801561051457600080fd5b5061052f600480360381019061052a9190612405565b611b44565b60405161053c919061275e565b60405180910390f35b34801561055157600080fd5b5061056c600480360381019061056791906124b2565b611b5c565b005b34801561057a57600080fd5b506105956004803603810190610590919061245f565b611c37565b6040516105a2919061275e565b60405180910390f35b6105c560048036038101906105c091906124f2565b611c75565b005b3480156105d357600080fd5b506105dc611ede565b6040516105e9919061275e565b60405180910390f35b3480156105fe57600080fd5b5061061960048036038101906106149190612405565b611ee4565b604051610626919061275e565b60405180910390f35b34801561063b57600080fd5b50610644611f2c565b6040516106519190612779565b60405180910390f35b34801561066657600080fd5b50610681600480360381019061067c9190612405565b611f50565b005b61068b611fd4565b005b34801561069957600080fd5b506106b460048036038101906106af9190612405565b612126565b6040516106c1919061275e565b60405180910390f35b6000600860008373ffffffffffffffffffffffffffffffffffffffff1673ffffffffffffffffffffffffffffffffffffffff168152602001908152602001600020549050919050565b6000806000905060005b6003805490508110156109715760005b600260008673ffffffffffffffffffffffffffffffffffffffff1673ffffffffffffffffffffffffffffffffffffffff16815260200190815260200160002060006003848154811061078257610781612a00565b5b9060005260206000200160009054906101000a900473ffffffffffffffffffffffffffffffffffffffff1673ffffffffffffffffffffffffffffffffffffffff1673ffffffffffffffffffffffffffffffffffffffff1681526020019081526020016000208054905081101561095d577f0000000000000000000000000000000000000000000000000000000000000000600260008773ffffffffffffffffffffffffffffffffffffffff1673ffffffffffffffffffffffffffffffffffffffff16815260200190815260200160002060006003858154811061086857610867612a00565b5b9060005260206000200160009054906101000a900473ffffffffffffffffffffffffffffffffffffffff1673ffffffffffffffffffffffffffffffffffffffff1673ffffffffffffffffffffffffffffffffffffffff16815260200190815260200160002082815481106108df576108de612a00565b5b90600052602060002001541461094a5760006109386003848154811061090857610907612a00565b5b9060005260206000200160009054906101000a900473ffffffffffffffffffffffffffffffffffffffff1661178b565b9050808461094691906127a5565b9350505b808061095590612959565b91505061072d565b50808061096990612959565b91505061071d565b5080915050919050565b600260005414156109c1576040517f08c379a00000000000000000000000000000000000000000000000000000000081526004016109b89061273e565b60405180910390fd5b60026000819055508060008111610a0f57806040517fc06ceeb9000000000000000000000000000000000000000000000000000000008152600401610a06919061275e565b60405180910390fd5b600954821115610a585733826040517f45e6ce9c000000000000000000000000000000000000000000000000000000008152600401610a4f9291906126ba565b60405180910390fd5b81600660003373ffffffffffffffffffffffffffffffffffffffff1673ffffffffffffffffffffffffffffffffffffffff1681526020019081526020016000206000828254610aa791906127a5565b925050819055506000610ab933610e45565b90507f000000000000000000000000000000000000000000000000000000000000000060ff16811015610b2357336040517f49441e98000000000000000000000000000000000000000000000000000000008152600401610b1a919061263f565b60405180910390fd5b8260096000828254610b359190612886565b925050819055503373ffffffffffffffffffffffffffffffffffffffff166108fc849081150290604051600060405180830381858888f19350505050158015610b82573d6000803e3d6000fd5b50823373ffffffffffffffffffffffffffffffffffffffff167fe830fa6e685fba2ba2f32c76f5db25aff3acbea74cecf28759cec44ceaf9e6b660405160405180910390a35050600160008190555050565b60056020528060005260406000206000915090505481565b3460008111610c3257806040517fc06ceeb9000000000000000000000000000000000000000000000000000000008152600401610c29919061275e565b60405180910390fd5b60026000541415610c78576040517f08c379a0000000000000000000000000000000000000000000000000000000008152600401610c6f9061273e565b60405180910390fd5b600260008190555034600660003373ffffffffffffffffffffffffffffffffffffffff1673ffffffffffffffffffffffffffffffffffffffff1681526020019081526020016000206000828254610ccf9190612886565b925050819055503460096000828254610ce891906127a5565b92505081905550343373ffffffffffffffffffffffffffffffffffffffff167f6f8286e47ace49394f4a28298c2ba2c5df760a3872931a94e60ab7fe82b809cd60405160405180910390a3600160008190555050565b610d4661216f565b6003819080600181540180825580915050600190039060005260206000200160009091909190916101000a81548173ffffffffffffffffffffffffffffffffffffffff021916908373ffffffffffffffffffffffffffffffffffffffff16021790555060046000815480929190610dbc90612959565b91905055508073ffffffffffffffffffffffffffffffffffffffff167f8b16df08b6a45161a2accfac7e351325ff3df2aed213dd821e0be370c010831c60405160405180910390a250565b6000610e3e600a60009054906101000a900473ffffffffffffffffffffffffffffffffffffffff16836121ed90919063ffffffff16565b9050919050565b600080610e5183611ee4565b90506000610ec9600a60009054906101000a900473ffffffffffffffffffffffffffffffffffffffff16600660008773ffffffffffffffffffffffffffffffffffffffff1673ffffffffffffffffffffffffffffffffffffffff168152602001908152602001600020546121ed90919063ffffffff16565b9050600080821115610ef45781606484610ee3919061282c565b610eed91906127fb565b9050610f1b565b7f000000000000000000000000000000000000000000000000000000000000000060ff1690505b809350505050919050565b60075481565b816000600860008373ffffffffffffffffffffffffffffffffffffffff1673ffffffffffffffffffffffffffffffffffffffff168152602001908152602001600020541415610fb257806040517f13275efe000000000000000000000000000000000000000000000000000000008152600401610fa9919061263f565b60405180910390fd5b60026000541415610ff8576040517f08c379a0000000000000000000000000000000000000000000000000000000008152600401610fef9061273e565b60405180910390fd5b60026000819055506001600260003373ffffffffffffffffffffffffffffffffffffffff1673ffffffffffffffffffffffffffffffffffffffff16815260200190815260200160002060008573ffffffffffffffffffffffffffffffffffffffff1673ffffffffffffffffffffffffffffffffffffffff1681526020019081526020016000208054905010156110c75733836040517f7d7c26bc0000000000000000000000000000000000000000000000000000000081526004016110be92919061265a565b60405180910390fd5b6000805b600260003373ffffffffffffffffffffffffffffffffffffffff1673ffffffffffffffffffffffffffffffffffffffff16815260200190815260200160002060008673ffffffffffffffffffffffffffffffffffffffff1673ffffffffffffffffffffffffffffffffffffffff1681526020019081526020016000208054905081101561140c5783600260003373ffffffffffffffffffffffffffffffffffffffff1673ffffffffffffffffffffffffffffffffffffffff16815260200190815260200160002060008773ffffffffffffffffffffffffffffffffffffffff1673ffffffffffffffffffffffffffffffffffffffff16815260200190815260200160002082815481106111e1576111e0612a00565b5b906000526020600020015414156113f9577f0000000000000000000000000000000000000000000000000000000000000000600260003373ffffffffffffffffffffffffffffffffffffffff1673ffffffffffffffffffffffffffffffffffffffff16815260200190815260200160002060008773ffffffffffffffffffffffffffffffffffffffff1673ffffffffffffffffffffffffffffffffffffffff16815260200190815260200160002082815481106112a1576112a0612a00565b5b9060005260206000200181905550600260003373ffffffffffffffffffffffffffffffffffffffff1673ffffffffffffffffffffffffffffffffffffffff16815260200190815260200160002060008673ffffffffffffffffffffffffffffffffffffffff1673ffffffffffffffffffffffffffffffffffffffff16815260200190815260200160002080549050600260003373ffffffffffffffffffffffffffffffffffffffff1673ffffffffffffffffffffffffffffffffffffffff16815260200190815260200160002060008773ffffffffffffffffffffffffffffffffffffffff1673ffffffffffffffffffffffffffffffffffffffff16815260200190815260200160002082815481106113bd576113bc612a00565b5b90600052602060002001547fa7b08929aff730e43922f7fea391547dac445cc7892f6c31f71da6c35034753660405160405180910390a3600191505b808061140490612959565b9150506110cb565b508061144f57826040517f6caeb130000000000000000000000000000000000000000000000000000000008152600401611446919061275e565b60405180910390fd5b600061145a33610e45565b9050803373ffffffffffffffffffffffffffffffffffffffff167fed345874c58beb0ef7c05e04d528cdd98fcc16d511d1e5b448e4337c20b6644e60405160405180910390a37f000000000000000000000000000000000000000000000000000000000000000060ff1681101561150857336040517f49441e980000000000000000000000000000000000000000000000000000000081526004016114ff919061263f565b60405180910390fd5b8473ffffffffffffffffffffffffffffffffffffffff166323b872dd3033876040518463ffffffff1660e01b815260040161154593929190612683565b600060405180830381600087803b15801561155f57600080fd5b505af1158015611573573d6000803e3d6000fd5b50505050833373ffffffffffffffffffffffffffffffffffffffff167f884edad9ce6fa2440d8a54cc123490eb96d2768479d49ff9c7366125a942436460405160405180910390a360008573ffffffffffffffffffffffffffffffffffffffff16636352211e866040518263ffffffff1660e01b81526004016115f6919061275e565b60206040518083038186803b15801561160e57600080fd5b505afa158015611622573d6000803e3d6000fd5b505050506040513d601f19601f820116820180604052508101906116469190612432565b90503373ffffffffffffffffffffffffffffffffffffffff168173ffffffffffffffffffffffffffffffffffffffff16146116ba5785856040517fa22699120000000000000000000000000000000000000000000000000000000081526004016116b19291906126ba565b60405180910390fd5b5050506001600081905550505050565b60095481565b6116d861216f565b6116e26000612229565b565b600a60009054906101000a900473ffffffffffffffffffffffffffffffffffffffff1681565b6003818154811061171a57600080fd5b906000526020600020016000915054906101000a900473ffffffffffffffffffffffffffffffffffffffff1681565b60086020528060005260406000206000915090505481565b6000600160009054906101000a900473ffffffffffffffffffffffffffffffffffffffff16905090565b600080611802600a60009054906101000a900473ffffffffffffffffffffffffffffffffffffffff16600860008673ffffffffffffffffffffffffffffffffffffffff1673ffffffffffffffffffffffffffffffffffffffff168152602001908152602001600020546121ed90919063ffffffff16565b905080915050919050565b816000600860008373ffffffffffffffffffffffffffffffffffffffff1673ffffffffffffffffffffffffffffffffffffffff16815260200190815260200160002054141561189357806040517f13275efe00000000000000000000000000000000000000000000000000000000815260040161188a919061263f565b60405180910390fd5b600260005414156118d9576040517f08c379a00000000000000000000000000000000000000000000000000000000081526004016118d09061273e565b60405180910390fd5b6002600081905550600260003373ffffffffffffffffffffffffffffffffffffffff1673ffffffffffffffffffffffffffffffffffffffff16815260200190815260200160002060008473ffffffffffffffffffffffffffffffffffffffff1673ffffffffffffffffffffffffffffffffffffffff1681526020019081526020016000208290806001815401808255809150506001900390600052602060002001600090919091909150558273ffffffffffffffffffffffffffffffffffffffff166323b872dd3330856040518463ffffffff1660e01b81526004016119c193929190612683565b600060405180830381600087803b1580156119db57600080fd5b505af11580156119ef573d6000803e3d6000fd5b50505050813373ffffffffffffffffffffffffffffffffffffffff167fe1fffcc4923d04b559f4d29a8bfc6cda04eb5b0d3c460751c2402c5c5cc9109c60405160405180910390a360008373ffffffffffffffffffffffffffffffffffffffff16636352211e846040518263ffffffff1660e01b8152600401611a72919061275e565b60206040518083038186803b158015611a8a57600080fd5b505afa158015611a9e573d6000803e3d6000fd5b505050506040513d601f19601f82011682018060405250810190611ac29190612432565b90503073ffffffffffffffffffffffffffffffffffffffff168173ffffffffffffffffffffffffffffffffffffffff1614611b365783836040517fb25cefcd000000000000000000000000000000000000000000000000000000008152600401611b2d9291906126ba565b60405180910390fd5b506001600081905550505050565b60066020528060005260406000206000915090505481565b611b6461216f565b8060008111611baa57806040517fc06ceeb9000000000000000000000000000000000000000000000000000000008152600401611ba1919061275e565b60405180910390fd5b81600860008573ffffffffffffffffffffffffffffffffffffffff1673ffffffffffffffffffffffffffffffffffffffff16815260200190815260200160002081905550818373ffffffffffffffffffffffffffffffffffffffff167f5febcde2e3902a22a4b6c4f288cd05ba08d323906168eaaf73167e52f85337d260405160405180910390a3505050565b60026020528260005260406000206020528160005260406000208181548110611c5f57600080fd5b9060005260206000200160009250925050505481565b8060008111611cbb57806040517fc06ceeb9000000000000000000000000000000000000000000000000000000008152600401611cb2919061275e565b60405180910390fd5b60026000541415611d01576040517f08c379a0000000000000000000000000000000000000000000000000000000008152600401611cf89061273e565b60405180910390fd5b6002600081905550600560003373ffffffffffffffffffffffffffffffffffffffff1673ffffffffffffffffffffffffffffffffffffffff16815260200190815260200160002054821115611d8f5733826040517f09165000000000000000000000000000000000000000000000000000000000008152600401611d869291906126ba565b60405180910390fd5b600954821115611dd85733826040517f45e6ce9c000000000000000000000000000000000000000000000000000000008152600401611dcf9291906126ba565b60405180910390fd5b81600560003373ffffffffffffffffffffffffffffffffffffffff1673ffffffffffffffffffffffffffffffffffffffff1681526020019081526020016000206000828254611e279190612886565b925050819055508160096000828254611e409190612886565b925050819055503373ffffffffffffffffffffffffffffffffffffffff166108fc839081150290604051600060405180830381858888f19350505050158015611e8d573d6000803e3d6000fd5b50343373ffffffffffffffffffffffffffffffffffffffff167fccbd99ba6da8f29b2a4f65e474e3c3973564d356c162c08d45f3dc7f0cb5b3aa60405160405180910390a360016000819055505050565b60045481565b600080611ef083610713565b9050600080821415611f055760009050611f22565b606460075483611f15919061282c565b611f1f91906127fb565b90505b8092505050919050565b7f000000000000000000000000000000000000000000000000000000000000000081565b611f5861216f565b600073ffffffffffffffffffffffffffffffffffffffff168173ffffffffffffffffffffffffffffffffffffffff161415611fc8576040517f08c379a0000000000000000000000000000000000000000000000000000000008152600401611fbf906126fe565b60405180910390fd5b611fd181612229565b50565b346000811161201a57806040517fc06ceeb9000000000000000000000000000000000000000000000000000000008152600401612011919061275e565b60405180910390fd5b60026000541415612060576040517f08c379a00000000000000000000000000000000000000000000000000000000081526004016120579061273e565b60405180910390fd5b600260008190555034600560003373ffffffffffffffffffffffffffffffffffffffff1673ffffffffffffffffffffffffffffffffffffffff16815260200190815260200160002060008282546120b791906127a5565b9250508190555034600960008282546120d091906127a5565b92505081905550343373ffffffffffffffffffffffffffffffffffffffff167f66ff7c8f71ccc7c36152a41920d0d3b46ef3034359f76aa1498ed4478c204b5c60405160405180910390a3600160008190555050565b6000600660008373ffffffffffffffffffffffffffffffffffffffff1673ffffffffffffffffffffffffffffffffffffffff168152602001908152602001600020549050919050565b6121776122ef565b73ffffffffffffffffffffffffffffffffffffffff16612195611761565b73ffffffffffffffffffffffffffffffffffffffff16146121eb576040517f08c379a00000000000000000000000000000000000000000000000000000000081526004016121e29061271e565b60405180910390fd5b565b6000806121f9836122f7565b90506000670de0b6b3a76400008286612212919061282c565b61221c91906127fb565b9050809250505092915050565b6000600160009054906101000a900473ffffffffffffffffffffffffffffffffffffffff16905081600160006101000a81548173ffffffffffffffffffffffffffffffffffffffff021916908373ffffffffffffffffffffffffffffffffffffffff1602179055508173ffffffffffffffffffffffffffffffffffffffff168173ffffffffffffffffffffffffffffffffffffffff167f8be0079c531659141344cd1fd0a4f28419497f9722a3daafe3b4186f6b6457e060405160405180910390a35050565b600033905090565b6000808273ffffffffffffffffffffffffffffffffffffffff1663feaf968c6040518163ffffffff1660e01b815260040160a06040518083038186803b15801561234057600080fd5b505afa158015612354573d6000803e3d6000fd5b505050506040513d601f19601f82011682018060405250810190612378919061251f565b50505091505080915050919050565b60008135905061239681612ad5565b92915050565b6000815190506123ab81612ad5565b92915050565b6000815190506123c081612aec565b92915050565b6000813590506123d581612b03565b92915050565b6000815190506123ea81612b03565b92915050565b6000815190506123ff81612b1a565b92915050565b60006020828403121561241b5761241a612a2f565b5b600061242984828501612387565b91505092915050565b60006020828403121561244857612447612a2f565b5b60006124568482850161239c565b91505092915050565b60008060006060848603121561247857612477612a2f565b5b600061248686828701612387565b935050602061249786828701612387565b92505060406124a8868287016123c6565b9150509250925092565b600080604083850312156124c9576124c8612a2f565b5b60006124d785828601612387565b92505060206124e8858286016123c6565b9150509250929050565b60006020828403121561250857612507612a2f565b5b6000612516848285016123c6565b91505092915050565b600080600080600060a0868803121561253b5761253a612a2f565b5b6000612549888289016123f0565b955050602061255a888289016123b1565b945050604061256b888289016123db565b935050606061257c888289016123db565b925050608061258d888289016123f0565b9150509295509295909350565b6125a3816128ba565b82525050565b6125b281612923565b82525050565b60006125c5602683612794565b91506125d082612a34565b604082019050919050565b60006125e8602083612794565b91506125f382612a83565b602082019050919050565b600061260b601f83612794565b915061261682612aac565b602082019050919050565b61262a816128f6565b82525050565b61263981612900565b82525050565b6000602082019050612654600083018461259a565b92915050565b600060408201905061266f600083018561259a565b61267c602083018461259a565b9392505050565b6000606082019050612698600083018661259a565b6126a5602083018561259a565b6126b26040830184612621565b949350505050565b60006040820190506126cf600083018561259a565b6126dc6020830184612621565b9392505050565b60006020820190506126f860008301846125a9565b92915050565b60006020820190508181036000830152612717816125b8565b9050919050565b60006020820190508181036000830152612737816125db565b9050919050565b60006020820190508181036000830152612757816125fe565b9050919050565b60006020820190506127736000830184612621565b92915050565b600060208201905061278e6000830184612630565b92915050565b600082825260208201905092915050565b60006127b0826128f6565b91506127bb836128f6565b9250827fffffffffffffffffffffffffffffffffffffffffffffffffffffffffffffffff038211156127f0576127ef6129a2565b5b828201905092915050565b6000612806826128f6565b9150612811836128f6565b925082612821576128206129d1565b5b828204905092915050565b6000612837826128f6565b9150612842836128f6565b9250817fffffffffffffffffffffffffffffffffffffffffffffffffffffffffffffffff048311821515161561287b5761287a6129a2565b5b828202905092915050565b6000612891826128f6565b915061289c836128f6565b9250828210156128af576128ae6129a2565b5b828203905092915050565b60006128c5826128d6565b9050919050565b6000819050919050565b600073ffffffffffffffffffffffffffffffffffffffff82169050919050565b6000819050919050565b600060ff82169050919050565b600069ffffffffffffffffffff82169050919050565b600061292e82612935565b9050919050565b600061294082612947565b9050919050565b6000612952826128d6565b9050919050565b6000612964826128f6565b91507fffffffffffffffffffffffffffffffffffffffffffffffffffffffffffffffff821415612997576129966129a2565b5b600182019050919050565b7f4e487b7100000000000000000000000000000000000000000000000000000000600052601160045260246000fd5b7f4e487b7100000000000000000000000000000000000000000000000000000000600052601260045260246000fd5b7f4e487b7100000000000000000000000000000000000000000000000000000000600052603260045260246000fd5b600080fd5b7f4f776e61626c653a206e6577206f776e657220697320746865207a65726f206160008201527f6464726573730000000000000000000000000000000000000000000000000000602082015250565b7f4f776e61626c653a2063616c6c6572206973206e6f7420746865206f776e6572600082015250565b7f5265656e7472616e637947756172643a207265656e7472616e742063616c6c00600082015250565b612ade816128ba565b8114612ae957600080fd5b50565b612af5816128cc565b8114612b0057600080fd5b50565b612b0c816128f6565b8114612b1757600080fd5b50565b612b238161290d565b8114612b2e57600080fd5b5056fea264697066735822122024c8c2f557d18b5818d681152f0e450447a8a53acbeef53ca1e24fd86690a80064736f6c63430008070033",
  "linkReferences": {},
  "deployedLinkReferences": {}
}