{
  "_format": "hh-sol-artifact-1",
  "contractName": "SimpleNFT",
  "sourceName": "contracts/SimpleNFT.sol",
  "abi": [
    {
      "inputs": [
        {
          "internalType": "string",
          "name": "name",
          "type": "string"
        },
        {
          "internalType": "string",
          "name": "symbol",
          "type": "string"
        },
        {
          "internalType": "string",
          "name": "baseTokenURI",
          "type": "string"
        },
        {
          "internalType": "uint256",
          "name": "initialMintPrice",
          "type": "uint256"
        },
        {
          "internalType": "uint32",
          "name": "maxSupply",
          "type": "uint32"
        }
      ],
      "stateMutability": "nonpayable",
      "type": "constructor"
    },
    {
      "inputs": [],
      "name": "BelowMintPrice",
      "type": "error"
    },
    {
      "inputs": [],
      "name": "CannotExceedMaxSupply",
      "type": "error"
    },
    {
      "anonymous": false,
      "inputs": [
        {
          "indexed": true,
          "internalType": "address",
          "name": "owner",
          "type": "address"
        },
        {
          "indexed": true,
          "internalType": "address",
          "name": "approved",
          "type": "address"
        },
        {
          "indexed": true,
          "internalType": "uint256",
          "name": "tokenId",
          "type": "uint256"
        }
      ],
      "name": "Approval",
      "type": "event"
    },
    {
      "anonymous": false,
      "inputs": [
        {
          "indexed": true,
          "internalType": "address",
          "name": "owner",
          "type": "address"
        },
        {
          "indexed": true,
          "internalType": "address",
          "name": "operator",
          "type": "address"
        },
        {
          "indexed": false,
          "internalType": "bool",
          "name": "approved",
          "type": "bool"
        }
      ],
      "name": "ApprovalForAll",
      "type": "event"
    },
    {
      "anonymous": false,
      "inputs": [
        {
          "indexed": true,
          "internalType": "address",
          "name": "minter",
          "type": "address"
        },
        {
          "indexed": true,
          "internalType": "uint256",
          "name": "tokenId",
          "type": "uint256"
        }
      ],
      "name": "Mint",
      "type": "event"
    },
    {
      "anonymous": false,
      "inputs": [
        {
          "indexed": true,
          "internalType": "address",
          "name": "previousOwner",
          "type": "address"
        },
        {
          "indexed": true,
          "internalType": "address",
          "name": "newOwner",
          "type": "address"
        }
      ],
      "name": "OwnershipTransferred",
      "type": "event"
    },
    {
      "anonymous": false,
      "inputs": [
        {
          "indexed": true,
          "internalType": "address",
          "name": "from",
          "type": "address"
        },
        {
          "indexed": true,
          "internalType": "address",
          "name": "to",
          "type": "address"
        },
        {
          "indexed": true,
          "internalType": "uint256",
          "name": "tokenId",
          "type": "uint256"
        }
      ],
      "name": "Transfer",
      "type": "event"
    },
    {
      "anonymous": false,
      "inputs": [
        {
          "indexed": true,
          "internalType": "uint256",
          "name": "amount",
          "type": "uint256"
        }
      ],
      "name": "WithdrawFunds",
      "type": "event"
    },
    {
      "inputs": [
        {
          "internalType": "address",
          "name": "to",
          "type": "address"
        },
        {
          "internalType": "uint256",
          "name": "tokenId",
          "type": "uint256"
        }
      ],
      "name": "approve",
      "outputs": [],
      "stateMutability": "nonpayable",
      "type": "function"
    },
    {
      "inputs": [
        {
          "internalType": "address",
          "name": "owner",
          "type": "address"
        }
      ],
      "name": "balanceOf",
      "outputs": [
        {
          "internalType": "uint256",
          "name": "",
          "type": "uint256"
        }
      ],
      "stateMutability": "view",
      "type": "function"
    },
    {
      "inputs": [
        {
          "internalType": "uint256",
          "name": "tokenId",
          "type": "uint256"
        }
      ],
      "name": "getApproved",
      "outputs": [
        {
          "internalType": "address",
          "name": "",
          "type": "address"
        }
      ],
      "stateMutability": "view",
      "type": "function"
    },
    {
      "inputs": [],
      "name": "i_maxSupply",
      "outputs": [
        {
          "internalType": "uint32",
          "name": "",
          "type": "uint32"
        }
      ],
      "stateMutability": "view",
      "type": "function"
    },
    {
      "inputs": [
        {
          "internalType": "address",
          "name": "owner",
          "type": "address"
        },
        {
          "internalType": "address",
          "name": "operator",
          "type": "address"
        }
      ],
      "name": "isApprovedForAll",
      "outputs": [
        {
          "internalType": "bool",
          "name": "",
          "type": "bool"
        }
      ],
      "stateMutability": "view",
      "type": "function"
    },
    {
      "inputs": [],
      "name": "mintPrice",
      "outputs": [
        {
          "internalType": "uint256",
          "name": "",
          "type": "uint256"
        }
      ],
      "stateMutability": "view",
      "type": "function"
    },
    {
      "inputs": [],
      "name": "name",
      "outputs": [
        {
          "internalType": "string",
          "name": "",
          "type": "string"
        }
      ],
      "stateMutability": "view",
      "type": "function"
    },
    {
      "inputs": [],
      "name": "owner",
      "outputs": [
        {
          "internalType": "address",
          "name": "",
          "type": "address"
        }
      ],
      "stateMutability": "view",
      "type": "function"
    },
    {
      "inputs": [
        {
          "internalType": "uint256",
          "name": "tokenId",
          "type": "uint256"
        }
      ],
      "name": "ownerOf",
      "outputs": [
        {
          "internalType": "address",
          "name": "",
          "type": "address"
        }
      ],
      "stateMutability": "view",
      "type": "function"
    },
    {
      "inputs": [],
      "name": "publicMint",
      "outputs": [
        {
          "internalType": "uint256",
          "name": "",
          "type": "uint256"
        }
      ],
      "stateMutability": "payable",
      "type": "function"
    },
    {
      "inputs": [],
      "name": "renounceOwnership",
      "outputs": [],
      "stateMutability": "nonpayable",
      "type": "function"
    },
    {
      "inputs": [
        {
          "internalType": "address",
          "name": "from",
          "type": "address"
        },
        {
          "internalType": "address",
          "name": "to",
          "type": "address"
        },
        {
          "internalType": "uint256",
          "name": "tokenId",
          "type": "uint256"
        }
      ],
      "name": "safeTransferFrom",
      "outputs": [],
      "stateMutability": "nonpayable",
      "type": "function"
    },
    {
      "inputs": [
        {
          "internalType": "address",
          "name": "from",
          "type": "address"
        },
        {
          "internalType": "address",
          "name": "to",
          "type": "address"
        },
        {
          "internalType": "uint256",
          "name": "tokenId",
          "type": "uint256"
        },
        {
          "internalType": "bytes",
          "name": "data",
          "type": "bytes"
        }
      ],
      "name": "safeTransferFrom",
      "outputs": [],
      "stateMutability": "nonpayable",
      "type": "function"
    },
    {
      "inputs": [
        {
          "internalType": "address",
          "name": "operator",
          "type": "address"
        },
        {
          "internalType": "bool",
          "name": "approved",
          "type": "bool"
        }
      ],
      "name": "setApprovalForAll",
      "outputs": [],
      "stateMutability": "nonpayable",
      "type": "function"
    },
    {
      "inputs": [
        {
          "internalType": "string",
          "name": "baseURI",
          "type": "string"
        }
      ],
      "name": "setBaseURI",
      "outputs": [],
      "stateMutability": "nonpayable",
      "type": "function"
    },
    {
      "inputs": [
        {
          "internalType": "uint256",
          "name": "newMintPrice",
          "type": "uint256"
        }
      ],
      "name": "setMintPrice",
      "outputs": [],
      "stateMutability": "nonpayable",
      "type": "function"
    },
    {
      "inputs": [
        {
          "internalType": "bytes4",
          "name": "interfaceId",
          "type": "bytes4"
        }
      ],
      "name": "supportsInterface",
      "outputs": [
        {
          "internalType": "bool",
          "name": "",
          "type": "bool"
        }
      ],
      "stateMutability": "view",
      "type": "function"
    },
    {
      "inputs": [],
      "name": "symbol",
      "outputs": [
        {
          "internalType": "string",
          "name": "",
          "type": "string"
        }
      ],
      "stateMutability": "view",
      "type": "function"
    },
    {
      "inputs": [
        {
          "internalType": "uint256",
          "name": "index",
          "type": "uint256"
        }
      ],
      "name": "tokenByIndex",
      "outputs": [
        {
          "internalType": "uint256",
          "name": "",
          "type": "uint256"
        }
      ],
      "stateMutability": "view",
      "type": "function"
    },
    {
      "inputs": [
        {
          "internalType": "address",
          "name": "owner",
          "type": "address"
        },
        {
          "internalType": "uint256",
          "name": "index",
          "type": "uint256"
        }
      ],
      "name": "tokenOfOwnerByIndex",
      "outputs": [
        {
          "internalType": "uint256",
          "name": "",
          "type": "uint256"
        }
      ],
      "stateMutability": "view",
      "type": "function"
    },
    {
      "inputs": [
        {
          "internalType": "uint256",
          "name": "tokenId",
          "type": "uint256"
        }
      ],
      "name": "tokenURI",
      "outputs": [
        {
          "internalType": "string",
          "name": "",
          "type": "string"
        }
      ],
      "stateMutability": "view",
      "type": "function"
    },
    {
      "inputs": [],
      "name": "totalSupply",
      "outputs": [
        {
          "internalType": "uint256",
          "name": "",
          "type": "uint256"
        }
      ],
      "stateMutability": "view",
      "type": "function"
    },
    {
      "inputs": [
        {
          "internalType": "address",
          "name": "from",
          "type": "address"
        },
        {
          "internalType": "address",
          "name": "to",
          "type": "address"
        },
        {
          "internalType": "uint256",
          "name": "tokenId",
          "type": "uint256"
        }
      ],
      "name": "transferFrom",
      "outputs": [],
      "stateMutability": "nonpayable",
      "type": "function"
    },
    {
      "inputs": [
        {
          "internalType": "address",
          "name": "newOwner",
          "type": "address"
        }
      ],
      "name": "transferOwnership",
      "outputs": [],
      "stateMutability": "nonpayable",
      "type": "function"
    },
    {
      "inputs": [],
      "name": "withdrawEth",
      "outputs": [],
      "stateMutability": "payable",
      "type": "function"
    }
  ],
  "bytecode": "0x60a06040523480156200001157600080fd5b5060405162003c4338038062003c43833981810160405281019062000037919062000301565b8484816000908051906020019062000051929190620001a5565b5080600190805190602001906200006a929190620001a5565b5050506200008d62000081620000d760201b60201c565b620000df60201b60201c565b6001600b8190555082600c9080519060200190620000ad929190620001a5565b5081600d819055508063ffffffff1660808163ffffffff1660e01b815250505050505050620005b8565b600033905090565b6000600a60009054906101000a900473ffffffffffffffffffffffffffffffffffffffff16905081600a60006101000a81548173ffffffffffffffffffffffffffffffffffffffff021916908373ffffffffffffffffffffffffffffffffffffffff1602179055508173ffffffffffffffffffffffffffffffffffffffff168173ffffffffffffffffffffffffffffffffffffffff167f8be0079c531659141344cd1fd0a4f28419497f9722a3daafe3b4186f6b6457e060405160405180910390a35050565b828054620001b39062000495565b90600052602060002090601f016020900481019282620001d7576000855562000223565b82601f10620001f257805160ff191683800117855562000223565b8280016001018555821562000223579182015b828111156200022257825182559160200191906001019062000205565b5b50905062000232919062000236565b5090565b5b808211156200025157600081600090555060010162000237565b5090565b60006200026c62000266846200040f565b620003e6565b9050828152602081018484840111156200028b576200028a62000564565b5b620002988482856200045f565b509392505050565b600082601f830112620002b857620002b76200055f565b5b8151620002ca84826020860162000255565b91505092915050565b600081519050620002e48162000584565b92915050565b600081519050620002fb816200059e565b92915050565b600080600080600060a0868803121562000320576200031f6200056e565b5b600086015167ffffffffffffffff81111562000341576200034062000569565b5b6200034f88828901620002a0565b955050602086015167ffffffffffffffff81111562000373576200037262000569565b5b6200038188828901620002a0565b945050604086015167ffffffffffffffff811115620003a557620003a462000569565b5b620003b388828901620002a0565b9350506060620003c688828901620002d3565b9250506080620003d988828901620002ea565b9150509295509295909350565b6000620003f262000405565b9050620004008282620004cb565b919050565b6000604051905090565b600067ffffffffffffffff8211156200042d576200042c62000530565b5b620004388262000573565b9050602081019050919050565b6000819050919050565b600063ffffffff82169050919050565b60005b838110156200047f57808201518184015260208101905062000462565b838111156200048f576000848401525b50505050565b60006002820490506001821680620004ae57607f821691505b60208210811415620004c557620004c462000501565b5b50919050565b620004d68262000573565b810181811067ffffffffffffffff82111715620004f857620004f762000530565b5b80604052505050565b7f4e487b7100000000000000000000000000000000000000000000000000000000600052602260045260246000fd5b7f4e487b7100000000000000000000000000000000000000000000000000000000600052604160045260246000fd5b600080fd5b600080fd5b600080fd5b600080fd5b6000601f19601f8301169050919050565b6200058f8162000445565b81146200059b57600080fd5b50565b620005a9816200044f565b8114620005b557600080fd5b50565b60805160e01c613665620005de600039600081816109110152610c1001526136656000f3fe6080604052600436106101665760003560e01c8063646cfb6f116100d1578063a0ef91df1161008a578063c87b56dd11610064578063c87b56dd14610510578063e985e9c51461054d578063f2fde38b1461058a578063f4a0a528146105b357610166565b8063a0ef91df146104b4578063a22cb465146104be578063b88d4fde146104e757610166565b8063646cfb6f146103b45780636817c76c146103df57806370a082311461040a578063715018a6146104475780638da5cb5b1461045e57806395d89b411461048957610166565b806326092b831161012357806326092b831461028d5780632f745c59146102ab57806342842e0e146102e85780634f6ccce71461031157806355f804b31461034e5780636352211e1461037757610166565b806301ffc9a71461016b57806306fdde03146101a8578063081812fc146101d3578063095ea7b31461021057806318160ddd1461023957806323b872dd14610264575b600080fd5b34801561017757600080fd5b50610192600480360381019061018d9190612612565b6105dc565b60405161019f9190612aff565b60405180910390f35b3480156101b457600080fd5b506101bd610656565b6040516101ca9190612b1a565b60405180910390f35b3480156101df57600080fd5b506101fa60048036038101906101f591906126b9565b6106e8565b6040516102079190612a98565b60405180910390f35b34801561021c57600080fd5b50610237600480360381019061023291906125d2565b61072e565b005b34801561024557600080fd5b5061024e610846565b60405161025b9190612d3c565b60405180910390f35b34801561027057600080fd5b5061028b600480360381019061028691906124bc565b610853565b005b6102956108b3565b6040516102a29190612d3c565b60405180910390f35b3480156102b757600080fd5b506102d260048036038101906102cd91906125d2565b610a08565b6040516102df9190612d3c565b60405180910390f35b3480156102f457600080fd5b5061030f600480360381019061030a91906124bc565b610aad565b005b34801561031d57600080fd5b50610338600480360381019061033391906126b9565b610acd565b6040516103459190612d3c565b60405180910390f35b34801561035a57600080fd5b506103756004803603810190610370919061266c565b610b3e565b005b34801561038357600080fd5b5061039e600480360381019061039991906126b9565b610b5c565b6040516103ab9190612a98565b60405180910390f35b3480156103c057600080fd5b506103c9610c0e565b6040516103d69190612d57565b60405180910390f35b3480156103eb57600080fd5b506103f4610c32565b6040516104019190612d3c565b60405180910390f35b34801561041657600080fd5b50610431600480360381019061042c919061244f565b610c3c565b60405161043e9190612d3c565b60405180910390f35b34801561045357600080fd5b5061045c610cf4565b005b34801561046a57600080fd5b50610473610d08565b6040516104809190612a98565b60405180910390f35b34801561049557600080fd5b5061049e610d32565b6040516104ab9190612b1a565b60405180910390f35b6104bc610dc4565b005b3480156104ca57600080fd5b506104e560048036038101906104e09190612592565b610e48565b005b3480156104f357600080fd5b5061050e6004803603810190610509919061250f565b610e5e565b005b34801561051c57600080fd5b50610537600480360381019061053291906126b9565b610ec0565b6040516105449190612b1a565b60405180910390f35b34801561055957600080fd5b50610574600480360381019061056f919061247c565b610ef4565b6040516105819190612aff565b60405180910390f35b34801561059657600080fd5b506105b160048036038101906105ac919061244f565b610f88565b005b3480156105bf57600080fd5b506105da60048036038101906105d591906126b9565b61100c565b005b60007f780e9d63000000000000000000000000000000000000000000000000000000007bffffffffffffffffffffffffffffffffffffffffffffffffffffffff1916827bffffffffffffffffffffffffffffffffffffffffffffffffffffffff1916148061064f575061064e8261101e565b5b9050919050565b60606000805461066590612fa1565b80601f016020809104026020016040519081016040528092919081815260200182805461069190612fa1565b80156106de5780601f106106b3576101008083540402835291602001916106de565b820191906000526020600020905b8154815290600101906020018083116106c157829003601f168201915b5050505050905090565b60006106f382611100565b6004600083815260200190815260200160002060009054906101000a900473ffffffffffffffffffffffffffffffffffffffff169050919050565b600061073982610b5c565b90508073ffffffffffffffffffffffffffffffffffffffff168373ffffffffffffffffffffffffffffffffffffffff1614156107aa576040517f08c379a00000000000000000000000000000000000000000000000000000000081526004016107a190612cbc565b60405180910390fd5b8073ffffffffffffffffffffffffffffffffffffffff166107c961114b565b73ffffffffffffffffffffffffffffffffffffffff1614806107f857506107f7816107f261114b565b610ef4565b5b610837576040517f08c379a000000000000000000000000000000000000000000000000000000000815260040161082e90612c3c565b60405180910390fd5b6108418383611153565b505050565b6000600880549050905090565b61086461085e61114b565b8261120c565b6108a3576040517f08c379a000000000000000000000000000000000000000000000000000000000815260040161089a90612cfc565b60405180910390fd5b6108ae8383836112a1565b505050565b60006002600b5414156108fb576040517f08c379a00000000000000000000000000000000000000000000000000000000081526004016108f290612d1c565b60405180910390fd5b6002600b81905550600061090d610846565b90507f000000000000000000000000000000000000000000000000000000000000000063ffffffff1681111561096f576040517f8398630700000000000000000000000000000000000000000000000000000000815260040160405180910390fd5b600d543410156109ab576040517f5a6fc91400000000000000000000000000000000000000000000000000000000815260040160405180910390fd5b6109b53382611508565b803373ffffffffffffffffffffffffffffffffffffffff167f0f6798a560793a54c3bcfe86a93cde1e73087d944c0ea20544137d412139688560405160405180910390a3809150506001600b8190555090565b6000610a1383610c3c565b8210610a54576040517f08c379a0000000000000000000000000000000000000000000000000000000008152600401610a4b90612b3c565b60405180910390fd5b600660008473ffffffffffffffffffffffffffffffffffffffff1673ffffffffffffffffffffffffffffffffffffffff168152602001908152602001600020600083815260200190815260200160002054905092915050565b610ac883838360405180602001604052806000815250610e5e565b505050565b6000610ad7610846565b8210610b18576040517f08c379a0000000000000000000000000000000000000000000000000000000008152600401610b0f90612cdc565b60405180910390fd5b60088281548110610b2c57610b2b61313a565b5b90600052602060002001549050919050565b610b46611526565b8181600c9190610b5792919061227d565b505050565b6000806002600084815260200190815260200160002060009054906101000a900473ffffffffffffffffffffffffffffffffffffffff169050600073ffffffffffffffffffffffffffffffffffffffff168173ffffffffffffffffffffffffffffffffffffffff161415610c05576040517f08c379a0000000000000000000000000000000000000000000000000000000008152600401610bfc90612c9c565b60405180910390fd5b80915050919050565b7f000000000000000000000000000000000000000000000000000000000000000081565b6000600d54905090565b60008073ffffffffffffffffffffffffffffffffffffffff168273ffffffffffffffffffffffffffffffffffffffff161415610cad576040517f08c379a0000000000000000000000000000000000000000000000000000000008152600401610ca490612c1c565b60405180910390fd5b600360008373ffffffffffffffffffffffffffffffffffffffff1673ffffffffffffffffffffffffffffffffffffffff168152602001908152602001600020549050919050565b610cfc611526565b610d0660006115a4565b565b6000600a60009054906101000a900473ffffffffffffffffffffffffffffffffffffffff16905090565b606060018054610d4190612fa1565b80601f0160208091040260200160405190810160405280929190818152602001828054610d6d90612fa1565b8015610dba5780601f10610d8f57610100808354040283529160200191610dba565b820191906000526020600020905b815481529060010190602001808311610d9d57829003601f168201915b5050505050905090565b610dcc611526565b60004790503373ffffffffffffffffffffffffffffffffffffffff166108fc829081150290604051600060405180830381858888f19350505050158015610e17573d6000803e3d6000fd5b50477fc67387b8229e689a6f1e2c3feafcfae2206a4d6e581bf95e25dbb0c934432a6460405160405180910390a250565b610e5a610e5361114b565b838361166a565b5050565b610e6f610e6961114b565b8361120c565b610eae576040517f08c379a0000000000000000000000000000000000000000000000000000000008152600401610ea590612cfc565b60405180910390fd5b610eba848484846117d7565b50505050565b6060600c610ecd83611833565b604051602001610ede929190612a74565b6040516020818303038152906040529050919050565b6000600560008473ffffffffffffffffffffffffffffffffffffffff1673ffffffffffffffffffffffffffffffffffffffff16815260200190815260200160002060008373ffffffffffffffffffffffffffffffffffffffff1673ffffffffffffffffffffffffffffffffffffffff16815260200190815260200160002060009054906101000a900460ff16905092915050565b610f90611526565b600073ffffffffffffffffffffffffffffffffffffffff168173ffffffffffffffffffffffffffffffffffffffff161415611000576040517f08c379a0000000000000000000000000000000000000000000000000000000008152600401610ff790612b7c565b60405180910390fd5b611009816115a4565b50565b611014611526565b80600d8190555050565b60007f80ac58cd000000000000000000000000000000000000000000000000000000007bffffffffffffffffffffffffffffffffffffffffffffffffffffffff1916827bffffffffffffffffffffffffffffffffffffffffffffffffffffffff191614806110e957507f5b5e139f000000000000000000000000000000000000000000000000000000007bffffffffffffffffffffffffffffffffffffffffffffffffffffffff1916827bffffffffffffffffffffffffffffffffffffffffffffffffffffffff1916145b806110f957506110f882611994565b5b9050919050565b611109816119fe565b611148576040517f08c379a000000000000000000000000000000000000000000000000000000000815260040161113f90612c9c565b60405180910390fd5b50565b600033905090565b816004600083815260200190815260200160002060006101000a81548173ffffffffffffffffffffffffffffffffffffffff021916908373ffffffffffffffffffffffffffffffffffffffff160217905550808273ffffffffffffffffffffffffffffffffffffffff166111c683610b5c565b73ffffffffffffffffffffffffffffffffffffffff167f8c5be1e5ebec7d5bd14f71427d1e84f3dd0314c0f7b2291e5b200ac8c7c3b92560405160405180910390a45050565b60008061121883610b5c565b90508073ffffffffffffffffffffffffffffffffffffffff168473ffffffffffffffffffffffffffffffffffffffff16148061125a57506112598185610ef4565b5b8061129857508373ffffffffffffffffffffffffffffffffffffffff16611280846106e8565b73ffffffffffffffffffffffffffffffffffffffff16145b91505092915050565b8273ffffffffffffffffffffffffffffffffffffffff166112c182610b5c565b73ffffffffffffffffffffffffffffffffffffffff1614611317576040517f08c379a000000000000000000000000000000000000000000000000000000000815260040161130e90612b9c565b60405180910390fd5b600073ffffffffffffffffffffffffffffffffffffffff168273ffffffffffffffffffffffffffffffffffffffff161415611387576040517f08c379a000000000000000000000000000000000000000000000000000000000815260040161137e90612bdc565b60405180910390fd5b611392838383611a6a565b61139d600082611153565b6001600360008573ffffffffffffffffffffffffffffffffffffffff1673ffffffffffffffffffffffffffffffffffffffff16815260200190815260200160002060008282546113ed9190612ea7565b925050819055506001600360008473ffffffffffffffffffffffffffffffffffffffff1673ffffffffffffffffffffffffffffffffffffffff16815260200190815260200160002060008282546114449190612e20565b92505081905550816002600083815260200190815260200160002060006101000a81548173ffffffffffffffffffffffffffffffffffffffff021916908373ffffffffffffffffffffffffffffffffffffffff160217905550808273ffffffffffffffffffffffffffffffffffffffff168473ffffffffffffffffffffffffffffffffffffffff167fddf252ad1be2c89b69c2b068fc378daa952ba7f163c4a11628f55a4df523b3ef60405160405180910390a4611503838383611b7e565b505050565b611522828260405180602001604052806000815250611b83565b5050565b61152e61114b565b73ffffffffffffffffffffffffffffffffffffffff1661154c610d08565b73ffffffffffffffffffffffffffffffffffffffff16146115a2576040517f08c379a000000000000000000000000000000000000000000000000000000000815260040161159990612c7c565b60405180910390fd5b565b6000600a60009054906101000a900473ffffffffffffffffffffffffffffffffffffffff16905081600a60006101000a81548173ffffffffffffffffffffffffffffffffffffffff021916908373ffffffffffffffffffffffffffffffffffffffff1602179055508173ffffffffffffffffffffffffffffffffffffffff168173ffffffffffffffffffffffffffffffffffffffff167f8be0079c531659141344cd1fd0a4f28419497f9722a3daafe3b4186f6b6457e060405160405180910390a35050565b8173ffffffffffffffffffffffffffffffffffffffff168373ffffffffffffffffffffffffffffffffffffffff1614156116d9576040517f08c379a00000000000000000000000000000000000000000000000000000000081526004016116d090612bfc565b60405180910390fd5b80600560008573ffffffffffffffffffffffffffffffffffffffff1673ffffffffffffffffffffffffffffffffffffffff16815260200190815260200160002060008473ffffffffffffffffffffffffffffffffffffffff1673ffffffffffffffffffffffffffffffffffffffff16815260200190815260200160002060006101000a81548160ff0219169083151502179055508173ffffffffffffffffffffffffffffffffffffffff168373ffffffffffffffffffffffffffffffffffffffff167f17307eab39ab6107e8899845ad3d59bd9653f200f220920489ca2b5937696c31836040516117ca9190612aff565b60405180910390a3505050565b6117e28484846112a1565b6117ee84848484611bde565b61182d576040517f08c379a000000000000000000000000000000000000000000000000000000000815260040161182490612b5c565b60405180910390fd5b50505050565b6060600082141561187b576040518060400160405280600181526020017f3000000000000000000000000000000000000000000000000000000000000000815250905061198f565b600082905060005b600082146118ad57808061189690613004565b915050600a826118a69190612e76565b9150611883565b60008167ffffffffffffffff8111156118c9576118c8613169565b5b6040519080825280601f01601f1916602001820160405280156118fb5781602001600182028036833780820191505090505b5090505b60008514611988576001826119149190612ea7565b9150600a85611923919061304d565b603061192f9190612e20565b60f81b8183815181106119455761194461313a565b5b60200101907effffffffffffffffffffffffffffffffffffffffffffffffffffffffffffff1916908160001a905350600a856119819190612e76565b94506118ff565b8093505050505b919050565b60007f01ffc9a7000000000000000000000000000000000000000000000000000000007bffffffffffffffffffffffffffffffffffffffffffffffffffffffff1916827bffffffffffffffffffffffffffffffffffffffffffffffffffffffff1916149050919050565b60008073ffffffffffffffffffffffffffffffffffffffff166002600084815260200190815260200160002060009054906101000a900473ffffffffffffffffffffffffffffffffffffffff1673ffffffffffffffffffffffffffffffffffffffff1614159050919050565b611a75838383611d75565b600073ffffffffffffffffffffffffffffffffffffffff168373ffffffffffffffffffffffffffffffffffffffff161415611ab857611ab381611d7a565b611af7565b8173ffffffffffffffffffffffffffffffffffffffff168373ffffffffffffffffffffffffffffffffffffffff1614611af657611af58382611dc3565b5b5b600073ffffffffffffffffffffffffffffffffffffffff168273ffffffffffffffffffffffffffffffffffffffff161415611b3a57611b3581611f30565b611b79565b8273ffffffffffffffffffffffffffffffffffffffff168273ffffffffffffffffffffffffffffffffffffffff1614611b7857611b778282612001565b5b5b505050565b505050565b611b8d8383612080565b611b9a6000848484611bde565b611bd9576040517f08c379a0000000000000000000000000000000000000000000000000000000008152600401611bd090612b5c565b60405180910390fd5b505050565b6000611bff8473ffffffffffffffffffffffffffffffffffffffff1661225a565b15611d68578373ffffffffffffffffffffffffffffffffffffffff1663150b7a02611c2861114b565b8786866040518563ffffffff1660e01b8152600401611c4a9493929190612ab3565b602060405180830381600087803b158015611c6457600080fd5b505af1925050508015611c9557506040513d601f19601f82011682018060405250810190611c92919061263f565b60015b611d18573d8060008114611cc5576040519150601f19603f3d011682016040523d82523d6000602084013e611cca565b606091505b50600081511415611d10576040517f08c379a0000000000000000000000000000000000000000000000000000000008152600401611d0790612b5c565b60405180910390fd5b805181602001fd5b63150b7a0260e01b7bffffffffffffffffffffffffffffffffffffffffffffffffffffffff1916817bffffffffffffffffffffffffffffffffffffffffffffffffffffffff191614915050611d6d565b600190505b949350505050565b505050565b6008805490506009600083815260200190815260200160002081905550600881908060018154018082558091505060019003906000526020600020016000909190919091505550565b60006001611dd084610c3c565b611dda9190612ea7565b9050600060076000848152602001908152602001600020549050818114611ebf576000600660008673ffffffffffffffffffffffffffffffffffffffff1673ffffffffffffffffffffffffffffffffffffffff168152602001908152602001600020600084815260200190815260200160002054905080600660008773ffffffffffffffffffffffffffffffffffffffff1673ffffffffffffffffffffffffffffffffffffffff168152602001908152602001600020600084815260200190815260200160002081905550816007600083815260200190815260200160002081905550505b6007600084815260200190815260200160002060009055600660008573ffffffffffffffffffffffffffffffffffffffff1673ffffffffffffffffffffffffffffffffffffffff16815260200190815260200160002060008381526020019081526020016000206000905550505050565b60006001600880549050611f449190612ea7565b9050600060096000848152602001908152602001600020549050600060088381548110611f7457611f7361313a565b5b906000526020600020015490508060088381548110611f9657611f9561313a565b5b906000526020600020018190555081600960008381526020019081526020016000208190555060096000858152602001908152602001600020600090556008805480611fe557611fe461310b565b5b6001900381819060005260206000200160009055905550505050565b600061200c83610c3c565b905081600660008573ffffffffffffffffffffffffffffffffffffffff1673ffffffffffffffffffffffffffffffffffffffff168152602001908152602001600020600083815260200190815260200160002081905550806007600084815260200190815260200160002081905550505050565b600073ffffffffffffffffffffffffffffffffffffffff168273ffffffffffffffffffffffffffffffffffffffff1614156120f0576040517f08c379a00000000000000000000000000000000000000000000000000000000081526004016120e790612c5c565b60405180910390fd5b6120f9816119fe565b15612139576040517f08c379a000000000000000000000000000000000000000000000000000000000815260040161213090612bbc565b60405180910390fd5b61214560008383611a6a565b6001600360008473ffffffffffffffffffffffffffffffffffffffff1673ffffffffffffffffffffffffffffffffffffffff16815260200190815260200160002060008282546121959190612e20565b92505081905550816002600083815260200190815260200160002060006101000a81548173ffffffffffffffffffffffffffffffffffffffff021916908373ffffffffffffffffffffffffffffffffffffffff160217905550808273ffffffffffffffffffffffffffffffffffffffff16600073ffffffffffffffffffffffffffffffffffffffff167fddf252ad1be2c89b69c2b068fc378daa952ba7f163c4a11628f55a4df523b3ef60405160405180910390a461225660008383611b7e565b5050565b6000808273ffffffffffffffffffffffffffffffffffffffff163b119050919050565b82805461228990612fa1565b90600052602060002090601f0160209004810192826122ab57600085556122f2565b82601f106122c457803560ff19168380011785556122f2565b828001600101855582156122f2579182015b828111156122f15782358255916020019190600101906122d6565b5b5090506122ff9190612303565b5090565b5b8082111561231c576000816000905550600101612304565b5090565b600061233361232e84612d97565b612d72565b90508281526020810184848401111561234f5761234e6131a7565b5b61235a848285612f5f565b509392505050565b600081359050612371816135d3565b92915050565b600081359050612386816135ea565b92915050565b60008135905061239b81613601565b92915050565b6000815190506123b081613601565b92915050565b600082601f8301126123cb576123ca61319d565b5b81356123db848260208601612320565b91505092915050565b60008083601f8401126123fa576123f961319d565b5b8235905067ffffffffffffffff81111561241757612416613198565b5b602083019150836001820283011115612433576124326131a2565b5b9250929050565b60008135905061244981613618565b92915050565b600060208284031215612465576124646131b1565b5b600061247384828501612362565b91505092915050565b60008060408385031215612493576124926131b1565b5b60006124a185828601612362565b92505060206124b285828601612362565b9150509250929050565b6000806000606084860312156124d5576124d46131b1565b5b60006124e386828701612362565b93505060206124f486828701612362565b92505060406125058682870161243a565b9150509250925092565b60008060008060808587031215612529576125286131b1565b5b600061253787828801612362565b945050602061254887828801612362565b93505060406125598782880161243a565b925050606085013567ffffffffffffffff81111561257a576125796131ac565b5b612586878288016123b6565b91505092959194509250565b600080604083850312156125a9576125a86131b1565b5b60006125b785828601612362565b92505060206125c885828601612377565b9150509250929050565b600080604083850312156125e9576125e86131b1565b5b60006125f785828601612362565b92505060206126088582860161243a565b9150509250929050565b600060208284031215612628576126276131b1565b5b60006126368482850161238c565b91505092915050565b600060208284031215612655576126546131b1565b5b6000612663848285016123a1565b91505092915050565b60008060208385031215612683576126826131b1565b5b600083013567ffffffffffffffff8111156126a1576126a06131ac565b5b6126ad858286016123e4565b92509250509250929050565b6000602082840312156126cf576126ce6131b1565b5b60006126dd8482850161243a565b91505092915050565b6126ef81612edb565b82525050565b6126fe81612eed565b82525050565b600061270f82612ddd565b6127198185612df3565b9350612729818560208601612f6e565b612732816131b6565b840191505092915050565b600061274882612de8565b6127528185612e04565b9350612762818560208601612f6e565b61276b816131b6565b840191505092915050565b600061278182612de8565b61278b8185612e15565b935061279b818560208601612f6e565b80840191505092915050565b600081546127b481612fa1565b6127be8186612e15565b945060018216600081146127d957600181146127ea5761281d565b60ff1983168652818601935061281d565b6127f385612dc8565b60005b83811015612815578154818901526001820191506020810190506127f6565b838801955050505b50505092915050565b6000612833602b83612e04565b915061283e826131c7565b604082019050919050565b6000612856603283612e04565b915061286182613216565b604082019050919050565b6000612879602683612e04565b915061288482613265565b604082019050919050565b600061289c602583612e04565b91506128a7826132b4565b604082019050919050565b60006128bf601c83612e04565b91506128ca82613303565b602082019050919050565b60006128e2602483612e04565b91506128ed8261332c565b604082019050919050565b6000612905601983612e04565b91506129108261337b565b602082019050919050565b6000612928602983612e04565b9150612933826133a4565b604082019050919050565b600061294b603e83612e04565b9150612956826133f3565b604082019050919050565b600061296e602083612e04565b915061297982613442565b602082019050919050565b6000612991602083612e04565b915061299c8261346b565b602082019050919050565b60006129b4601883612e04565b91506129bf82613494565b602082019050919050565b60006129d7602183612e04565b91506129e2826134bd565b604082019050919050565b60006129fa602c83612e04565b9150612a058261350c565b604082019050919050565b6000612a1d602e83612e04565b9150612a288261355b565b604082019050919050565b6000612a40601f83612e04565b9150612a4b826135aa565b602082019050919050565b612a5f81612f45565b82525050565b612a6e81612f4f565b82525050565b6000612a8082856127a7565b9150612a8c8284612776565b91508190509392505050565b6000602082019050612aad60008301846126e6565b92915050565b6000608082019050612ac860008301876126e6565b612ad560208301866126e6565b612ae26040830185612a56565b8181036060830152612af48184612704565b905095945050505050565b6000602082019050612b1460008301846126f5565b92915050565b60006020820190508181036000830152612b34818461273d565b905092915050565b60006020820190508181036000830152612b5581612826565b9050919050565b60006020820190508181036000830152612b7581612849565b9050919050565b60006020820190508181036000830152612b958161286c565b9050919050565b60006020820190508181036000830152612bb58161288f565b9050919050565b60006020820190508181036000830152612bd5816128b2565b9050919050565b60006020820190508181036000830152612bf5816128d5565b9050919050565b60006020820190508181036000830152612c15816128f8565b9050919050565b60006020820190508181036000830152612c358161291b565b9050919050565b60006020820190508181036000830152612c558161293e565b9050919050565b60006020820190508181036000830152612c7581612961565b9050919050565b60006020820190508181036000830152612c9581612984565b9050919050565b60006020820190508181036000830152612cb5816129a7565b9050919050565b60006020820190508181036000830152612cd5816129ca565b9050919050565b60006020820190508181036000830152612cf5816129ed565b9050919050565b60006020820190508181036000830152612d1581612a10565b9050919050565b60006020820190508181036000830152612d3581612a33565b9050919050565b6000602082019050612d516000830184612a56565b92915050565b6000602082019050612d6c6000830184612a65565b92915050565b6000612d7c612d8d565b9050612d888282612fd3565b919050565b6000604051905090565b600067ffffffffffffffff821115612db257612db1613169565b5b612dbb826131b6565b9050602081019050919050565b60008190508160005260206000209050919050565b600081519050919050565b600081519050919050565b600082825260208201905092915050565b600082825260208201905092915050565b600081905092915050565b6000612e2b82612f45565b9150612e3683612f45565b9250827fffffffffffffffffffffffffffffffffffffffffffffffffffffffffffffffff03821115612e6b57612e6a61307e565b5b828201905092915050565b6000612e8182612f45565b9150612e8c83612f45565b925082612e9c57612e9b6130ad565b5b828204905092915050565b6000612eb282612f45565b9150612ebd83612f45565b925082821015612ed057612ecf61307e565b5b828203905092915050565b6000612ee682612f25565b9050919050565b60008115159050919050565b60007fffffffff0000000000000000000000000000000000000000000000000000000082169050919050565b600073ffffffffffffffffffffffffffffffffffffffff82169050919050565b6000819050919050565b600063ffffffff82169050919050565b82818337600083830152505050565b60005b83811015612f8c578082015181840152602081019050612f71565b83811115612f9b576000848401525b50505050565b60006002820490506001821680612fb957607f821691505b60208210811415612fcd57612fcc6130dc565b5b50919050565b612fdc826131b6565b810181811067ffffffffffffffff82111715612ffb57612ffa613169565b5b80604052505050565b600061300f82612f45565b91507fffffffffffffffffffffffffffffffffffffffffffffffffffffffffffffffff8214156130425761304161307e565b5b600182019050919050565b600061305882612f45565b915061306383612f45565b925082613073576130726130ad565b5b828206905092915050565b7f4e487b7100000000000000000000000000000000000000000000000000000000600052601160045260246000fd5b7f4e487b7100000000000000000000000000000000000000000000000000000000600052601260045260246000fd5b7f4e487b7100000000000000000000000000000000000000000000000000000000600052602260045260246000fd5b7f4e487b7100000000000000000000000000000000000000000000000000000000600052603160045260246000fd5b7f4e487b7100000000000000000000000000000000000000000000000000000000600052603260045260246000fd5b7f4e487b7100000000000000000000000000000000000000000000000000000000600052604160045260246000fd5b600080fd5b600080fd5b600080fd5b600080fd5b600080fd5b600080fd5b6000601f19601f8301169050919050565b7f455243373231456e756d657261626c653a206f776e657220696e646578206f7560008201527f74206f6620626f756e6473000000000000000000000000000000000000000000602082015250565b7f4552433732313a207472616e7366657220746f206e6f6e20455243373231526560008201527f63656976657220696d706c656d656e7465720000000000000000000000000000602082015250565b7f4f776e61626c653a206e6577206f776e657220697320746865207a65726f206160008201527f6464726573730000000000000000000000000000000000000000000000000000602082015250565b7f4552433732313a207472616e736665722066726f6d20696e636f72726563742060008201527f6f776e6572000000000000000000000000000000000000000000000000000000602082015250565b7f4552433732313a20746f6b656e20616c7265616479206d696e74656400000000600082015250565b7f4552433732313a207472616e7366657220746f20746865207a65726f2061646460008201527f7265737300000000000000000000000000000000000000000000000000000000602082015250565b7f4552433732313a20617070726f766520746f2063616c6c657200000000000000600082015250565b7f4552433732313a2061646472657373207a65726f206973206e6f74206120766160008201527f6c6964206f776e65720000000000000000000000000000000000000000000000602082015250565b7f4552433732313a20617070726f76652063616c6c6572206973206e6f7420746f60008201527f6b656e206f776e6572206e6f7220617070726f76656420666f7220616c6c0000602082015250565b7f4552433732313a206d696e7420746f20746865207a65726f2061646472657373600082015250565b7f4f776e61626c653a2063616c6c6572206973206e6f7420746865206f776e6572600082015250565b7f4552433732313a20696e76616c696420746f6b656e2049440000000000000000600082015250565b7f4552433732313a20617070726f76616c20746f2063757272656e74206f776e6560008201527f7200000000000000000000000000000000000000000000000000000000000000602082015250565b7f455243373231456e756d657261626c653a20676c6f62616c20696e646578206f60008201527f7574206f6620626f756e64730000000000000000000000000000000000000000602082015250565b7f4552433732313a2063616c6c6572206973206e6f7420746f6b656e206f776e6560008201527f72206e6f7220617070726f766564000000000000000000000000000000000000602082015250565b7f5265656e7472616e637947756172643a207265656e7472616e742063616c6c00600082015250565b6135dc81612edb565b81146135e757600080fd5b50565b6135f381612eed565b81146135fe57600080fd5b50565b61360a81612ef9565b811461361557600080fd5b50565b61362181612f45565b811461362c57600080fd5b5056fea2646970667358221220ca87b31642c3bb25ff7cc7fb353eba736546ec2ff59f997ae5a8553b7bbdd4f064736f6c63430008070033",
  "linkReferences": {},
  "deployedLinkReferences": {}
}